{
  "_format": "hh-sol-artifact-1",
  "contractName": "MyEpicGame",
  "sourceName": "contracts/MyEpicGame.sol",
  "abi": [
    {
      "inputs": [
        {
          "internalType": "string[]",
          "name": "characterNames",
          "type": "string[]"
        },
        {
          "internalType": "string[]",
          "name": "characterImageURIs",
          "type": "string[]"
        },
        {
          "internalType": "uint256[]",
          "name": "characterHp",
          "type": "uint256[]"
        },
        {
          "internalType": "uint256[]",
          "name": "characterAttackDmg",
          "type": "uint256[]"
        },
        {
          "internalType": "uint256[]",
          "name": "characterDefense",
          "type": "uint256[]"
        },
        {
          "internalType": "string[]",
          "name": "characterMoveName",
          "type": "string[]"
        },
        {
          "internalType": "uint256[]",
          "name": "characterCritChance",
          "type": "uint256[]"
        },
        {
          "components": [
            {
              "internalType": "string",
              "name": "name",
              "type": "string"
            },
            {
              "internalType": "string",
              "name": "imageURI",
              "type": "string"
            },
            {
              "internalType": "uint256",
              "name": "hp",
              "type": "uint256"
            },
            {
              "internalType": "uint256",
              "name": "attackDamage",
              "type": "uint256"
            },
            {
              "internalType": "uint256",
              "name": "defense",
              "type": "uint256"
            },
            {
              "internalType": "string",
              "name": "moveName",
              "type": "string"
            },
            {
              "internalType": "uint256",
              "name": "critChance",
              "type": "uint256"
            }
          ],
          "internalType": "struct MyEpicGame.BigBossArguments",
          "name": "bossData",
          "type": "tuple"
        }
      ],
      "stateMutability": "nonpayable",
      "type": "constructor"
    },
    {
      "anonymous": false,
      "inputs": [
        {
          "indexed": true,
          "internalType": "address",
          "name": "owner",
          "type": "address"
        },
        {
          "indexed": true,
          "internalType": "address",
          "name": "approved",
          "type": "address"
        },
        {
          "indexed": true,
          "internalType": "uint256",
          "name": "tokenId",
          "type": "uint256"
        }
      ],
      "name": "Approval",
      "type": "event"
    },
    {
      "anonymous": false,
      "inputs": [
        {
          "indexed": true,
          "internalType": "address",
          "name": "owner",
          "type": "address"
        },
        {
          "indexed": true,
          "internalType": "address",
          "name": "operator",
          "type": "address"
        },
        {
          "indexed": false,
          "internalType": "bool",
          "name": "approved",
          "type": "bool"
        }
      ],
      "name": "ApprovalForAll",
      "type": "event"
    },
    {
      "anonymous": false,
      "inputs": [
        {
          "indexed": false,
          "internalType": "uint256",
          "name": "newBossHp",
          "type": "uint256"
        },
        {
          "indexed": false,
          "internalType": "uint256",
          "name": "newPlayerHp",
          "type": "uint256"
        },
        {
          "indexed": false,
          "internalType": "uint256",
          "name": "tokenId",
          "type": "uint256"
        }
      ],
      "name": "AttackComplete",
      "type": "event"
    },
    {
      "anonymous": false,
      "inputs": [
        {
          "indexed": false,
          "internalType": "address",
          "name": "sender",
          "type": "address"
        },
        {
          "indexed": false,
          "internalType": "uint256",
          "name": "tokenId",
          "type": "uint256"
        },
        {
          "indexed": false,
          "internalType": "uint256",
          "name": "characterIndex",
          "type": "uint256"
        }
      ],
      "name": "CharacterNFTMinted",
      "type": "event"
    },
    {
      "anonymous": false,
      "inputs": [
        {
          "indexed": true,
          "internalType": "address",
          "name": "from",
          "type": "address"
        },
        {
          "indexed": true,
          "internalType": "address",
          "name": "to",
          "type": "address"
        },
        {
          "indexed": true,
          "internalType": "uint256",
          "name": "tokenId",
          "type": "uint256"
        }
      ],
      "name": "Transfer",
      "type": "event"
    },
    {
      "inputs": [
        {
          "internalType": "address",
          "name": "to",
          "type": "address"
        },
        {
          "internalType": "uint256",
          "name": "tokenId",
          "type": "uint256"
        }
      ],
      "name": "approve",
      "outputs": [],
      "stateMutability": "nonpayable",
      "type": "function"
    },
    {
      "inputs": [],
      "name": "attackBoss",
      "outputs": [],
      "stateMutability": "nonpayable",
      "type": "function"
    },
    {
      "inputs": [
        {
          "internalType": "uint256",
          "name": "_tokenId",
          "type": "uint256"
        }
      ],
      "name": "attackBossV2",
      "outputs": [],
      "stateMutability": "nonpayable",
      "type": "function"
    },
    {
      "inputs": [
        {
          "internalType": "address",
          "name": "owner",
          "type": "address"
        }
      ],
      "name": "balanceOf",
      "outputs": [
        {
          "internalType": "uint256",
          "name": "",
          "type": "uint256"
        }
      ],
      "stateMutability": "view",
      "type": "function"
    },
    {
      "inputs": [],
      "name": "bigBoss",
      "outputs": [
        {
          "internalType": "string",
          "name": "name",
          "type": "string"
        },
        {
          "internalType": "string",
          "name": "imageURI",
          "type": "string"
        },
        {
          "internalType": "uint256",
          "name": "hp",
          "type": "uint256"
        },
        {
          "internalType": "uint256",
          "name": "maxHp",
          "type": "uint256"
        },
        {
          "internalType": "uint256",
          "name": "attackDamage",
          "type": "uint256"
        },
        {
          "internalType": "uint256",
          "name": "defense",
          "type": "uint256"
        },
        {
          "internalType": "string",
          "name": "moveName",
          "type": "string"
        },
        {
          "internalType": "uint256",
          "name": "critChance",
          "type": "uint256"
        }
      ],
      "stateMutability": "view",
      "type": "function"
    },
    {
      "inputs": [],
      "name": "checkIfUserHasNFT",
      "outputs": [
        {
          "components": [
            {
              "internalType": "uint256",
              "name": "characterIndex",
              "type": "uint256"
            },
            {
              "internalType": "string",
              "name": "name",
              "type": "string"
            },
            {
              "internalType": "string",
              "name": "imageURI",
              "type": "string"
            },
            {
              "internalType": "uint256",
              "name": "hp",
              "type": "uint256"
            },
            {
              "internalType": "uint256",
              "name": "maxHp",
              "type": "uint256"
            },
            {
              "internalType": "uint256",
              "name": "attackDamage",
              "type": "uint256"
            },
            {
              "internalType": "uint256",
              "name": "defense",
              "type": "uint256"
            },
            {
              "internalType": "string",
              "name": "moveName",
              "type": "string"
            },
            {
              "internalType": "uint256",
              "name": "critChance",
              "type": "uint256"
            }
          ],
          "internalType": "struct MyEpicGame.CharacterAttributes",
          "name": "",
          "type": "tuple"
        }
      ],
      "stateMutability": "view",
      "type": "function"
    },
    {
      "inputs": [],
      "name": "checkIfUserHasNFTs",
      "outputs": [
        {
          "components": [
            {
              "internalType": "string",
              "name": "name",
              "type": "string"
            },
            {
              "internalType": "string",
              "name": "imageURI",
              "type": "string"
            },
            {
              "internalType": "uint256",
              "name": "hp",
              "type": "uint256"
            },
            {
              "internalType": "uint256",
              "name": "maxHp",
              "type": "uint256"
            },
            {
              "internalType": "uint256",
              "name": "attackDamage",
              "type": "uint256"
            },
            {
              "internalType": "uint256",
              "name": "defense",
              "type": "uint256"
            },
            {
              "internalType": "string",
              "name": "moveName",
              "type": "string"
            },
            {
              "internalType": "uint256",
              "name": "critChance",
              "type": "uint256"
            },
            {
              "internalType": "uint256",
              "name": "tokenId",
              "type": "uint256"
            }
          ],
          "internalType": "struct MyEpicGame.PokemonNFTAttributes[]",
          "name": "",
          "type": "tuple[]"
        }
      ],
      "stateMutability": "view",
      "type": "function"
    },
    {
      "inputs": [],
      "name": "getAllDefaultCharacters",
      "outputs": [
        {
          "components": [
            {
              "internalType": "uint256",
              "name": "characterIndex",
              "type": "uint256"
            },
            {
              "internalType": "string",
              "name": "name",
              "type": "string"
            },
            {
              "internalType": "string",
              "name": "imageURI",
              "type": "string"
            },
            {
              "internalType": "uint256",
              "name": "hp",
              "type": "uint256"
            },
            {
              "internalType": "uint256",
              "name": "maxHp",
              "type": "uint256"
            },
            {
              "internalType": "uint256",
              "name": "attackDamage",
              "type": "uint256"
            },
            {
              "internalType": "uint256",
              "name": "defense",
              "type": "uint256"
            },
            {
              "internalType": "string",
              "name": "moveName",
              "type": "string"
            },
            {
              "internalType": "uint256",
              "name": "critChance",
              "type": "uint256"
            }
          ],
          "internalType": "struct MyEpicGame.CharacterAttributes[]",
          "name": "",
          "type": "tuple[]"
        }
      ],
      "stateMutability": "view",
      "type": "function"
    },
    {
      "inputs": [
        {
          "internalType": "uint256",
          "name": "tokenId",
          "type": "uint256"
        }
      ],
      "name": "getApproved",
      "outputs": [
        {
          "internalType": "address",
          "name": "",
          "type": "address"
        }
      ],
      "stateMutability": "view",
      "type": "function"
    },
    {
      "inputs": [],
      "name": "getBigBoss",
      "outputs": [
        {
          "components": [
            {
              "internalType": "string",
              "name": "name",
              "type": "string"
            },
            {
              "internalType": "string",
              "name": "imageURI",
              "type": "string"
            },
            {
              "internalType": "uint256",
              "name": "hp",
              "type": "uint256"
            },
            {
              "internalType": "uint256",
              "name": "maxHp",
              "type": "uint256"
            },
            {
              "internalType": "uint256",
              "name": "attackDamage",
              "type": "uint256"
            },
            {
              "internalType": "uint256",
              "name": "defense",
              "type": "uint256"
            },
            {
              "internalType": "string",
              "name": "moveName",
              "type": "string"
            },
            {
              "internalType": "uint256",
              "name": "critChance",
              "type": "uint256"
            }
          ],
          "internalType": "struct MyEpicGame.BigBoss",
          "name": "",
          "type": "tuple"
        }
      ],
      "stateMutability": "view",
      "type": "function"
    },
    {
      "inputs": [
        {
          "internalType": "address",
          "name": "owner",
          "type": "address"
        },
        {
          "internalType": "address",
          "name": "operator",
          "type": "address"
        }
      ],
      "name": "isApprovedForAll",
      "outputs": [
        {
          "internalType": "bool",
          "name": "",
          "type": "bool"
        }
      ],
      "stateMutability": "view",
      "type": "function"
    },
    {
      "inputs": [
        {
          "internalType": "uint256",
          "name": "_characterIndex",
          "type": "uint256"
        }
      ],
      "name": "mintCharacterNFT",
      "outputs": [],
      "stateMutability": "nonpayable",
      "type": "function"
    },
    {
      "inputs": [],
      "name": "name",
      "outputs": [
        {
          "internalType": "string",
          "name": "",
          "type": "string"
        }
      ],
      "stateMutability": "view",
      "type": "function"
    },
    {
      "inputs": [
        {
          "internalType": "uint256",
          "name": "tokenId",
          "type": "uint256"
        }
      ],
      "name": "ownerOf",
      "outputs": [
        {
          "internalType": "address",
          "name": "",
          "type": "address"
        }
      ],
      "stateMutability": "view",
      "type": "function"
    },
    {
      "inputs": [
        {
          "internalType": "address",
          "name": "",
          "type": "address"
        }
      ],
      "name": "ownerToPokemonId",
      "outputs": [
        {
          "internalType": "uint256",
          "name": "",
          "type": "uint256"
        }
      ],
      "stateMutability": "view",
      "type": "function"
    },
    {
      "inputs": [
        {
          "internalType": "address",
          "name": "",
          "type": "address"
        },
        {
          "internalType": "uint256",
          "name": "",
          "type": "uint256"
        }
      ],
      "name": "ownerToPokemons",
      "outputs": [
        {
          "internalType": "uint256",
          "name": "",
          "type": "uint256"
        }
      ],
      "stateMutability": "view",
      "type": "function"
    },
    {
      "inputs": [
        {
          "internalType": "uint256",
          "name": "",
          "type": "uint256"
        }
      ],
      "name": "pokemonAttributes",
      "outputs": [
        {
          "internalType": "uint256",
          "name": "characterIndex",
          "type": "uint256"
        },
        {
          "internalType": "string",
          "name": "name",
          "type": "string"
        },
        {
          "internalType": "string",
          "name": "imageURI",
          "type": "string"
        },
        {
          "internalType": "uint256",
          "name": "hp",
          "type": "uint256"
        },
        {
          "internalType": "uint256",
          "name": "maxHp",
          "type": "uint256"
        },
        {
          "internalType": "uint256",
          "name": "attackDamage",
          "type": "uint256"
        },
        {
          "internalType": "uint256",
          "name": "defense",
          "type": "uint256"
        },
        {
          "internalType": "string",
          "name": "moveName",
          "type": "string"
        },
        {
          "internalType": "uint256",
          "name": "critChance",
          "type": "uint256"
        }
      ],
      "stateMutability": "view",
      "type": "function"
    },
    {
      "inputs": [
        {
          "internalType": "uint256",
          "name": "",
          "type": "uint256"
        }
      ],
      "name": "pokemonToOwner",
      "outputs": [
        {
          "internalType": "address",
          "name": "",
          "type": "address"
        }
      ],
      "stateMutability": "view",
      "type": "function"
    },
    {
      "inputs": [
        {
          "internalType": "address",
          "name": "from",
          "type": "address"
        },
        {
          "internalType": "address",
          "name": "to",
          "type": "address"
        },
        {
          "internalType": "uint256",
          "name": "tokenId",
          "type": "uint256"
        }
      ],
      "name": "safeTransferFrom",
      "outputs": [],
      "stateMutability": "nonpayable",
      "type": "function"
    },
    {
      "inputs": [
        {
          "internalType": "address",
          "name": "from",
          "type": "address"
        },
        {
          "internalType": "address",
          "name": "to",
          "type": "address"
        },
        {
          "internalType": "uint256",
          "name": "tokenId",
          "type": "uint256"
        },
        {
          "internalType": "bytes",
          "name": "_data",
          "type": "bytes"
        }
      ],
      "name": "safeTransferFrom",
      "outputs": [],
      "stateMutability": "nonpayable",
      "type": "function"
    },
    {
      "inputs": [
        {
          "internalType": "address",
          "name": "operator",
          "type": "address"
        },
        {
          "internalType": "bool",
          "name": "approved",
          "type": "bool"
        }
      ],
      "name": "setApprovalForAll",
      "outputs": [],
      "stateMutability": "nonpayable",
      "type": "function"
    },
    {
      "inputs": [
        {
          "internalType": "bytes4",
          "name": "interfaceId",
          "type": "bytes4"
        }
      ],
      "name": "supportsInterface",
      "outputs": [
        {
          "internalType": "bool",
          "name": "",
          "type": "bool"
        }
      ],
      "stateMutability": "view",
      "type": "function"
    },
    {
      "inputs": [],
      "name": "symbol",
      "outputs": [
        {
          "internalType": "string",
          "name": "",
          "type": "string"
        }
      ],
      "stateMutability": "view",
      "type": "function"
    },
    {
      "inputs": [
        {
          "internalType": "uint256",
          "name": "_tokenId",
          "type": "uint256"
        }
      ],
      "name": "tokenURI",
      "outputs": [
        {
          "internalType": "string",
          "name": "",
          "type": "string"
        }
      ],
      "stateMutability": "view",
      "type": "function"
    },
    {
      "inputs": [
        {
          "internalType": "address",
          "name": "from",
          "type": "address"
        },
        {
          "internalType": "address",
          "name": "to",
          "type": "address"
        },
        {
          "internalType": "uint256",
          "name": "tokenId",
          "type": "uint256"
        }
      ],
      "name": "transferFrom",
      "outputs": [],
      "stateMutability": "nonpayable",
      "type": "function"
    }
  ],
  "bytecode": "0x60806040523480156200001157600080fd5b50604051620071cb380380620071cb833981810160405281019062000037919062000e67565b6040518060400160405280600781526020017f506f6b656d6f6e000000000000000000000000000000000000000000000000008152506040518060400160405280600781526020017f504f4b454d4f4e000000000000000000000000000000000000000000000000008152508160009080519060200190620000bb92919062000aee565b508060019080519060200190620000d492919062000aee565b5050506040518061010001604052808260000151815260200182602001518152602001826040015181526020018260400151815260200182606001518152602001826080015181526020018260a0015181526020018260c00151815250600660008201518160000190805190602001906200015192919062000aee565b5060208201518160010190805190602001906200017092919062000aee565b5060408201518160020155606082015181600301556080820151816004015560a0820151816005015560c0820151816006019080519060200190620001b792919062000aee565b5060e08201518160070155905050620003266040518060600160405280602a8152602001620071a1602a913960066000018054620001f5906200126f565b80601f016020809104026020016040519081016040528092919081815260200182805462000223906200126f565b8015620002745780601f10620002485761010080835404028352916020019162000274565b820191906000526020600020905b8154815290600101906020018083116200025657829003601f168201915b50505050506006600201546006600101805462000291906200126f565b80601f0160208091040260200160405190810160405280929190818152602001828054620002bf906200126f565b8015620003105780601f10620002e45761010080835404028352916020019162000310565b820191906000526020600020905b815481529060010190602001808311620002f257829003601f168201915b50505050506200095a60201b62002d211760201c565b60005b88518110156200093457600f6040518061012001604052808381526020018b848151811062000381577f4e487b7100000000000000000000000000000000000000000000000000000000600052603260045260246000fd5b602002602001015181526020018a8481518110620003c8577f4e487b7100000000000000000000000000000000000000000000000000000000600052603260045260246000fd5b602002602001015181526020018984815181106200040f577f4e487b7100000000000000000000000000000000000000000000000000000000600052603260045260246000fd5b6020026020010151815260200189848151811062000456577f4e487b7100000000000000000000000000000000000000000000000000000000600052603260045260246000fd5b602002602001015181526020018884815181106200049d577f4e487b7100000000000000000000000000000000000000000000000000000000600052603260045260246000fd5b60200260200101518152602001878481518110620004e4577f4e487b7100000000000000000000000000000000000000000000000000000000600052603260045260246000fd5b602002602001015181526020018684815181106200052b577f4e487b7100000000000000000000000000000000000000000000000000000000600052603260045260246000fd5b6020026020010151815260200185848151811062000572577f4e487b7100000000000000000000000000000000000000000000000000000000600052603260045260246000fd5b60200260200101518152509080600181540180825580915050600190039060005260206000209060090201600090919091909150600082015181600001556020820151816001019080519060200190620005ce92919062000aee565b506040820151816002019080519060200190620005ed92919062000aee565b50606082015181600301556080820151816004015560a0820151816005015560c0820151816006015560e08201518160070190805190602001906200063492919062000aee565b50610100820151816008015550506000600f82815481106200067f577f4e487b7100000000000000000000000000000000000000000000000000000000600052603260045260246000fd5b90600052602060002090600902016040518061012001604052908160008201548152602001600182018054620006b5906200126f565b80601f0160208091040260200160405190810160405280929190818152602001828054620006e3906200126f565b8015620007345780601f10620007085761010080835404028352916020019162000734565b820191906000526020600020905b8154815290600101906020018083116200071657829003601f168201915b505050505081526020016002820180546200074f906200126f565b80601f01602080910402602001604051908101604052809291908181526020018280546200077d906200126f565b8015620007ce5780601f10620007a257610100808354040283529160200191620007ce565b820191906000526020600020905b815481529060010190602001808311620007b057829003601f168201915b505050505081526020016003820154815260200160048201548152602001600582015481526020016006820154815260200160078201805462000811906200126f565b80601f01602080910402602001604051908101604052809291908181526020018280546200083f906200126f565b8015620008905780601f10620008645761010080835404028352916020019162000890565b820191906000526020600020905b8154815290600101906020018083116200087257829003601f168201915b505050505081526020016008820154815250509050620008e36040518060600160405280602581526020016200717c602591398260200151836060015184604001516200095a60201b62002d211760201c565b6200091c60405180606001604052806024815260200162007158602491398260e001518360a0015162000a0660201b62002dc31760201c565b506001816200092c9190620011d2565b905062000329565b506200094c600e62000aaf60201b62002e621760201c565b50505050505050506200135d565b62000a00848484846040516024016200097794939291906200108f565b6040516020818303038152906040527f8d142cdd000000000000000000000000000000000000000000000000000000007bffffffffffffffffffffffffffffffffffffffffffffffffffffffff19166020820180517bffffffffffffffffffffffffffffffffffffffffffffffffffffffff838183161783525050505062000ac560201b60201c565b50505050565b62000aaa83838360405160240162000a219392919062001044565b6040516020818303038152906040527ff362ca59000000000000000000000000000000000000000000000000000000007bffffffffffffffffffffffffffffffffffffffffffffffffffffffff19166020820180517bffffffffffffffffffffffffffffffffffffffffffffffffffffffff838183161783525050505062000ac560201b60201c565b505050565b6001816000016000828254019250508190555050565b60008151905060006a636f6e736f6c652e6c6f679050602083016000808483855afa5050505050565b82805462000afc906200126f565b90600052602060002090601f01602090048101928262000b20576000855562000b6c565b82601f1062000b3b57805160ff191683800117855562000b6c565b8280016001018555821562000b6c579182015b8281111562000b6b57825182559160200191906001019062000b4e565b5b50905062000b7b919062000b7f565b5090565b5b8082111562000b9a57600081600090555060010162000b80565b5090565b600062000bb562000baf8462001125565b620010f1565b9050808382526020820190508260005b8581101562000bf9578151850162000bde888262000d17565b84526020840193506020830192505060018101905062000bc5565b5050509392505050565b600062000c1a62000c148462001154565b620010f1565b9050808382526020820190508285602086028201111562000c3a57600080fd5b60005b8581101562000c6e578162000c53888262000e50565b84526020840193506020830192505060018101905062000c3d565b5050509392505050565b600062000c8f62000c898462001183565b620010f1565b90508281526020810184848401111562000ca857600080fd5b62000cb584828562001239565b509392505050565b600082601f83011262000ccf57600080fd5b815162000ce184826020860162000b9e565b91505092915050565b600082601f83011262000cfc57600080fd5b815162000d0e84826020860162000c03565b91505092915050565b600082601f83011262000d2957600080fd5b815162000d3b84826020860162000c78565b91505092915050565b600060e0828403121562000d5757600080fd5b62000d6360e0620010f1565b9050600082015167ffffffffffffffff81111562000d8057600080fd5b62000d8e8482850162000d17565b600083015250602082015167ffffffffffffffff81111562000daf57600080fd5b62000dbd8482850162000d17565b602083015250604062000dd38482850162000e50565b604083015250606062000de98482850162000e50565b606083015250608062000dff8482850162000e50565b60808301525060a082015167ffffffffffffffff81111562000e2057600080fd5b62000e2e8482850162000d17565b60a08301525060c062000e448482850162000e50565b60c08301525092915050565b60008151905062000e618162001343565b92915050565b600080600080600080600080610100898b03121562000e8557600080fd5b600089015167ffffffffffffffff81111562000ea057600080fd5b62000eae8b828c0162000cbd565b985050602089015167ffffffffffffffff81111562000ecc57600080fd5b62000eda8b828c0162000cbd565b975050604089015167ffffffffffffffff81111562000ef857600080fd5b62000f068b828c0162000cea565b965050606089015167ffffffffffffffff81111562000f2457600080fd5b62000f328b828c0162000cea565b955050608089015167ffffffffffffffff81111562000f5057600080fd5b62000f5e8b828c0162000cea565b94505060a089015167ffffffffffffffff81111562000f7c57600080fd5b62000f8a8b828c0162000cbd565b93505060c089015167ffffffffffffffff81111562000fa857600080fd5b62000fb68b828c0162000cea565b92505060e089015167ffffffffffffffff81111562000fd457600080fd5b62000fe28b828c0162000d44565b9150509295985092959890939650565b600062000fff82620011b6565b6200100b8185620011c1565b93506200101d81856020860162001239565b620010288162001332565b840191505092915050565b6200103e816200122f565b82525050565b6000606082019050818103600083015262001060818662000ff2565b9050818103602083015262001076818562000ff2565b905062001087604083018462001033565b949350505050565b60006080820190508181036000830152620010ab818762000ff2565b90508181036020830152620010c1818662000ff2565b9050620010d2604083018562001033565b8181036060830152620010e6818462000ff2565b905095945050505050565b6000604051905081810181811067ffffffffffffffff821117156200111b576200111a62001303565b5b8060405250919050565b600067ffffffffffffffff82111562001143576200114262001303565b5b602082029050602081019050919050565b600067ffffffffffffffff82111562001172576200117162001303565b5b602082029050602081019050919050565b600067ffffffffffffffff821115620011a157620011a062001303565b5b601f19601f8301169050602081019050919050565b600081519050919050565b600082825260208201905092915050565b6000620011df826200122f565b9150620011ec836200122f565b9250827fffffffffffffffffffffffffffffffffffffffffffffffffffffffffffffffff03821115620012245762001223620012a5565b5b828201905092915050565b6000819050919050565b60005b83811015620012595780820151818401526020810190506200123c565b8381111562001269576000848401525b50505050565b600060028204905060018216806200128857607f821691505b602082108114156200129f576200129e620012d4565b5b50919050565b7f4e487b7100000000000000000000000000000000000000000000000000000000600052601160045260246000fd5b7f4e487b7100000000000000000000000000000000000000000000000000000000600052602260045260246000fd5b7f4e487b7100000000000000000000000000000000000000000000000000000000600052604160045260246000fd5b6000601f19601f8301169050919050565b6200134e816200122f565b81146200135a57600080fd5b50565b615deb806200136d6000396000f3fe608060405234801561001057600080fd5b50600436106101735760003560e01c8063938bc829116100de578063b953084e11610097578063d4f24c5b11610071578063d4f24c5b14610495578063e3dbd3111461049f578063e985e9c5146104bb578063f8b81ef7146104eb57610173565b8063b953084e14610429578063c87b56dd14610447578063c8cf27f41461047757610173565b8063938bc8291461034657806395d89b4114610376578063a22cb46514610394578063a9c32679146103b0578063b260325a146103d5578063b88d4fde1461040d57610173565b8063095ea7b311610130578063095ea7b31461026257806323b872dd1461027e5780632f7467b31461029a57806342842e0e146102ca5780636352211e146102e657806370a082311461031657610173565b8063015080761461017857806301ffc9a714610196578063023ad037146101c65780630665f961146101f657806306fdde0314610214578063081812fc14610232575b600080fd5b610180610507565b60405161018d9190615282565b60405180910390f35b6101b060048036038101906101ab91906141ab565b610949565b6040516101bd91906152a4565b60405180910390f35b6101e060048036038101906101db9190614004565b610a2b565b6040516101ed91906156f8565b60405180910390f35b6101fe610a43565b60405161020b91906156b4565b60405180910390f35b61021c610c46565b60405161022991906152bf565b60405180910390f35b61024c600480360381019061024791906141fd565b610cd8565b60405161025991906151c2565b60405180910390f35b61027c6004803603810190610277919061416f565b610d5d565b005b61029860048036038101906102939190614069565b610e75565b005b6102b460048036038101906102af91906141fd565b610ed5565b6040516102c191906151c2565b60405180910390f35b6102e460048036038101906102df9190614069565b610f08565b005b61030060048036038101906102fb91906141fd565b610f28565b60405161030d91906151c2565b60405180910390f35b610330600480360381019061032b9190614004565b610fda565b60405161033d91906156f8565b60405180910390f35b610360600480360381019061035b919061416f565b611092565b60405161036d91906156f8565b60405180910390f35b61037e6110c3565b60405161038b91906152bf565b60405180910390f35b6103ae60048036038101906103a99190614133565b611155565b005b6103b86112d6565b6040516103cc9897969594939291906153d3565b60405180910390f35b6103ef60048036038101906103ea91906141fd565b6114a4565b60405161040499989796959493929190615713565b60405180910390f35b610427600480360381019061042291906140b8565b61168a565b005b6104316116ec565b60405161043e9190615260565b60405180910390f35b610461600480360381019061045c91906141fd565b61193e565b60405161046e91906152bf565b60405180910390f35b61047f611c2f565b60405161048c91906156d6565b60405180910390f35b61049d611eae565b005b6104b960048036038101906104b491906141fd565b61223b565b005b6104d560048036038101906104d0919061402d565b612633565b6040516104e291906152a4565b60405180910390f35b610505600480360381019061050091906141fd565b6126c7565b005b60606000601360003373ffffffffffffffffffffffffffffffffffffffff1673ffffffffffffffffffffffffffffffffffffffff16815260200190815260200160002080548060200260200160405190810160405280929190818152602001828054801561059457602002820191906000526020600020905b815481526020019060010190808311610580575b505050505090506000815167ffffffffffffffff8111156105de577f4e487b7100000000000000000000000000000000000000000000000000000000600052604160045260246000fd5b60405190808252806020026020018201604052801561061757816020015b610604613db3565b8152602001906001900390816105fc5790505b50905060005b8251811015610940576000838281518110610661577f4e487b7100000000000000000000000000000000000000000000000000000000600052603260045260246000fd5b6020026020010151905060006010600083815260200190815260200160002060405180610120016040529081600082015481526020016001820180546106a690615ade565b80601f01602080910402602001604051908101604052809291908181526020018280546106d290615ade565b801561071f5780601f106106f45761010080835404028352916020019161071f565b820191906000526020600020905b81548152906001019060200180831161070257829003601f168201915b5050505050815260200160028201805461073890615ade565b80601f016020809104026020016040519081016040528092919081815260200182805461076490615ade565b80156107b15780601f10610786576101008083540402835291602001916107b1565b820191906000526020600020905b81548152906001019060200180831161079457829003601f168201915b50505050508152602001600382015481526020016004820154815260200160058201548152602001600682015481526020016007820180546107f290615ade565b80601f016020809104026020016040519081016040528092919081815260200182805461081e90615ade565b801561086b5780601f106108405761010080835404028352916020019161086b565b820191906000526020600020905b81548152906001019060200180831161084e57829003601f168201915b5050505050815260200160088201548152505090506000604051806101200160405280836020015181526020018360400151815260200183606001518152602001836080015181526020018360a0015181526020018360c0015181526020018360e00151815260200183610100015181526020018481525090508085858151811061091f577f4e487b7100000000000000000000000000000000000000000000000000000000600052603260045260246000fd5b6020026020010181905250505050808061093890615b10565b91505061061d565b50809250505090565b60007f80ac58cd000000000000000000000000000000000000000000000000000000007bffffffffffffffffffffffffffffffffffffffffffffffffffffffff1916827bffffffffffffffffffffffffffffffffffffffffffffffffffffffff19161480610a1457507f5b5e139f000000000000000000000000000000000000000000000000000000007bffffffffffffffffffffffffffffffffffffffffffffffffffffffff1916827bffffffffffffffffffffffffffffffffffffffffffffffffffffffff1916145b80610a245750610a2382612e78565b5b9050919050565b60126020528060005260406000206000915090505481565b610a4b613dff565b600660405180610100016040529081600082018054610a6990615ade565b80601f0160208091040260200160405190810160405280929190818152602001828054610a9590615ade565b8015610ae25780601f10610ab757610100808354040283529160200191610ae2565b820191906000526020600020905b815481529060010190602001808311610ac557829003601f168201915b50505050508152602001600182018054610afb90615ade565b80601f0160208091040260200160405190810160405280929190818152602001828054610b2790615ade565b8015610b745780601f10610b4957610100808354040283529160200191610b74565b820191906000526020600020905b815481529060010190602001808311610b5757829003601f168201915b5050505050815260200160028201548152602001600382015481526020016004820154815260200160058201548152602001600682018054610bb590615ade565b80601f0160208091040260200160405190810160405280929190818152602001828054610be190615ade565b8015610c2e5780601f10610c0357610100808354040283529160200191610c2e565b820191906000526020600020905b815481529060010190602001808311610c1157829003601f168201915b50505050508152602001600782015481525050905090565b606060008054610c5590615ade565b80601f0160208091040260200160405190810160405280929190818152602001828054610c8190615ade565b8015610cce5780601f10610ca357610100808354040283529160200191610cce565b820191906000526020600020905b815481529060010190602001808311610cb157829003601f168201915b5050505050905090565b6000610ce382612ee2565b610d22576040517f08c379a0000000000000000000000000000000000000000000000000000000008152600401610d1990615634565b60405180910390fd5b6004600083815260200190815260200160002060009054906101000a900473ffffffffffffffffffffffffffffffffffffffff169050919050565b6000610d6882610f28565b90508073ffffffffffffffffffffffffffffffffffffffff168373ffffffffffffffffffffffffffffffffffffffff161415610dd9576040517f08c379a0000000000000000000000000000000000000000000000000000000008152600401610dd090615674565b60405180910390fd5b8073ffffffffffffffffffffffffffffffffffffffff16610df8612f4e565b73ffffffffffffffffffffffffffffffffffffffff161480610e275750610e2681610e21612f4e565b612633565b5b610e66576040517f08c379a0000000000000000000000000000000000000000000000000000000008152600401610e5d90615594565b60405180910390fd5b610e708383612f56565b505050565b610e86610e80612f4e565b8261300f565b610ec5576040517f08c379a0000000000000000000000000000000000000000000000000000000008152600401610ebc90615694565b60405180910390fd5b610ed08383836130ed565b505050565b60116020528060005260406000206000915054906101000a900473ffffffffffffffffffffffffffffffffffffffff1681565b610f238383836040518060200160405280600081525061168a565b505050565b6000806002600084815260200190815260200160002060009054906101000a900473ffffffffffffffffffffffffffffffffffffffff169050600073ffffffffffffffffffffffffffffffffffffffff168173ffffffffffffffffffffffffffffffffffffffff161415610fd1576040517f08c379a0000000000000000000000000000000000000000000000000000000008152600401610fc8906155d4565b60405180910390fd5b80915050919050565b60008073ffffffffffffffffffffffffffffffffffffffff168273ffffffffffffffffffffffffffffffffffffffff16141561104b576040517f08c379a0000000000000000000000000000000000000000000000000000000008152600401611042906155b4565b60405180910390fd5b600360008373ffffffffffffffffffffffffffffffffffffffff1673ffffffffffffffffffffffffffffffffffffffff168152602001908152602001600020549050919050565b601360205281600052604060002081815481106110ae57600080fd5b90600052602060002001600091509150505481565b6060600180546110d290615ade565b80601f01602080910402602001604051908101604052809291908181526020018280546110fe90615ade565b801561114b5780601f106111205761010080835404028352916020019161114b565b820191906000526020600020905b81548152906001019060200180831161112e57829003601f168201915b5050505050905090565b61115d612f4e565b73ffffffffffffffffffffffffffffffffffffffff168273ffffffffffffffffffffffffffffffffffffffff1614156111cb576040517f08c379a00000000000000000000000000000000000000000000000000000000081526004016111c290615534565b60405180910390fd5b80600560006111d8612f4e565b73ffffffffffffffffffffffffffffffffffffffff1673ffffffffffffffffffffffffffffffffffffffff16815260200190815260200160002060008473ffffffffffffffffffffffffffffffffffffffff1673ffffffffffffffffffffffffffffffffffffffff16815260200190815260200160002060006101000a81548160ff0219169083151502179055508173ffffffffffffffffffffffffffffffffffffffff16611285612f4e565b73ffffffffffffffffffffffffffffffffffffffff167f17307eab39ab6107e8899845ad3d59bd9653f200f220920489ca2b5937696c31836040516112ca91906152a4565b60405180910390a35050565b60068060000180546112e790615ade565b80601f016020809104026020016040519081016040528092919081815260200182805461131390615ade565b80156113605780601f1061133557610100808354040283529160200191611360565b820191906000526020600020905b81548152906001019060200180831161134357829003601f168201915b50505050509080600101805461137590615ade565b80601f01602080910402602001604051908101604052809291908181526020018280546113a190615ade565b80156113ee5780601f106113c3576101008083540402835291602001916113ee565b820191906000526020600020905b8154815290600101906020018083116113d157829003601f168201915b50505050509080600201549080600301549080600401549080600501549080600601805461141b90615ade565b80601f016020809104026020016040519081016040528092919081815260200182805461144790615ade565b80156114945780601f1061146957610100808354040283529160200191611494565b820191906000526020600020905b81548152906001019060200180831161147757829003601f168201915b5050505050908060070154905088565b60106020528060005260406000206000915090508060000154908060010180546114cd90615ade565b80601f01602080910402602001604051908101604052809291908181526020018280546114f990615ade565b80156115465780601f1061151b57610100808354040283529160200191611546565b820191906000526020600020905b81548152906001019060200180831161152957829003601f168201915b50505050509080600201805461155b90615ade565b80601f016020809104026020016040519081016040528092919081815260200182805461158790615ade565b80156115d45780601f106115a9576101008083540402835291602001916115d4565b820191906000526020600020905b8154815290600101906020018083116115b757829003601f168201915b50505050509080600301549080600401549080600501549080600601549080600701805461160190615ade565b80601f016020809104026020016040519081016040528092919081815260200182805461162d90615ade565b801561167a5780601f1061164f5761010080835404028352916020019161167a565b820191906000526020600020905b81548152906001019060200180831161165d57829003601f168201915b5050505050908060080154905089565b61169b611695612f4e565b8361300f565b6116da576040517f08c379a00000000000000000000000000000000000000000000000000000000081526004016116d190615694565b60405180910390fd5b6116e684848484613349565b50505050565b6060600f805480602002602001604051908101604052809291908181526020016000905b828210156119355783829060005260206000209060090201604051806101200160405290816000820154815260200160018201805461174e90615ade565b80601f016020809104026020016040519081016040528092919081815260200182805461177a90615ade565b80156117c75780601f1061179c576101008083540402835291602001916117c7565b820191906000526020600020905b8154815290600101906020018083116117aa57829003601f168201915b505050505081526020016002820180546117e090615ade565b80601f016020809104026020016040519081016040528092919081815260200182805461180c90615ade565b80156118595780601f1061182e57610100808354040283529160200191611859565b820191906000526020600020905b81548152906001019060200180831161183c57829003601f168201915b505050505081526020016003820154815260200160048201548152602001600582015481526020016006820154815260200160078201805461189a90615ade565b80601f01602080910402602001604051908101604052809291908181526020018280546118c690615ade565b80156119135780601f106118e857610100808354040283529160200191611913565b820191906000526020600020905b8154815290600101906020018083116118f657829003601f168201915b5050505050815260200160088201548152505081526020019060010190611710565b50505050905090565b6060600060106000848152602001908152602001600020604051806101200160405290816000820154815260200160018201805461197b90615ade565b80601f01602080910402602001604051908101604052809291908181526020018280546119a790615ade565b80156119f45780601f106119c9576101008083540402835291602001916119f4565b820191906000526020600020905b8154815290600101906020018083116119d757829003601f168201915b50505050508152602001600282018054611a0d90615ade565b80601f0160208091040260200160405190810160405280929190818152602001828054611a3990615ade565b8015611a865780601f10611a5b57610100808354040283529160200191611a86565b820191906000526020600020905b815481529060010190602001808311611a6957829003601f168201915b5050505050815260200160038201548152602001600482015481526020016005820154815260200160068201548152602001600782018054611ac790615ade565b80601f0160208091040260200160405190810160405280929190818152602001828054611af390615ade565b8015611b405780601f10611b1557610100808354040283529160200191611b40565b820191906000526020600020905b815481529060010190602001808311611b2357829003601f168201915b5050505050815260200160088201548152505090506000611b6482606001516133a5565b90506000611b7583608001516133a5565b90506000611b868460a001516133a5565b90506000611b978560c001516133a5565b90506000611ba98661010001516133a5565b90506000611bf98760200151611bbe8b6133a5565b8960400151898989898e60e001518a604051602001611be5999897969594939291906150b3565b604051602081830303815290604052613552565b9050600081604051602001611c0e91906151a0565b60405160208183030381529060405290508098505050505050505050919050565b611c37613e44565b6000601260003373ffffffffffffffffffffffffffffffffffffffff1673ffffffffffffffffffffffffffffffffffffffff1681526020019081526020016000205490506000811115611e9d57601060008281526020019081526020016000206040518061012001604052908160008201548152602001600182018054611cbd90615ade565b80601f0160208091040260200160405190810160405280929190818152602001828054611ce990615ade565b8015611d365780601f10611d0b57610100808354040283529160200191611d36565b820191906000526020600020905b815481529060010190602001808311611d1957829003601f168201915b50505050508152602001600282018054611d4f90615ade565b80601f0160208091040260200160405190810160405280929190818152602001828054611d7b90615ade565b8015611dc85780601f10611d9d57610100808354040283529160200191611dc8565b820191906000526020600020905b815481529060010190602001808311611dab57829003601f168201915b5050505050815260200160038201548152602001600482015481526020016005820154815260200160068201548152602001600782018054611e0990615ade565b80601f0160208091040260200160405190810160405280929190818152602001828054611e3590615ade565b8015611e825780601f10611e5757610100808354040283529160200191611e82565b820191906000526020600020905b815481529060010190602001808311611e6557829003601f168201915b50505050508152602001600882015481525050915050611eab565b611ea5613e44565b80925050505b90565b6000601260003373ffffffffffffffffffffffffffffffffffffffff1673ffffffffffffffffffffffffffffffffffffffff1681526020019081526020016000205490506000601060008381526020019081526020016000209050611fc16040518060600160405280603c8152602001615d47603c9139826001018054611f3490615ade565b80601f0160208091040260200160405190810160405280929190818152602001828054611f6090615ade565b8015611fad5780601f10611f8257610100808354040283529160200191611fad565b820191906000526020600020905b815481529060010190602001808311611f9057829003601f168201915b505050505083600301548460050154613710565b6120996040518060400160405280601b81526020017f426f73732025732068617320257320485020616e6420257320414400000000008152506006600001805461200a90615ade565b80601f016020809104026020016040519081016040528092919081815260200182805461203690615ade565b80156120835780601f1061205857610100808354040283529160200191612083565b820191906000526020600020905b81548152906001019060200180831161206657829003601f168201915b5050505050600660020154600660040154613710565b60008160030154116120e0576040517f08c379a00000000000000000000000000000000000000000000000000000000081526004016120d790615574565b60405180910390fd5b600060066002015411612128576040517f08c379a000000000000000000000000000000000000000000000000000000000815260040161211f906155f4565b60405180910390fd5b80600501546006600201541015612149576000600660020181905550612168565b806005015460066002015461215e91906159f4565b6006600201819055505b6006600401548160030154101561218857600081600301819055506121a6565b600660040154816003015461219d91906159f4565b81600301819055505b6121cd604051806060016040528060258152602001615cb4602591396006600201546137b2565b6121f3604051806060016040528060338152602001615d836033913982600301546137b2565b7fa8f68fa0afad68f1577a1c5c66c297b751442bbab5e98c25f07ee510a921558c60066002015482600301548460405161222f939291906157b5565b60405180910390a15050565b6122796040518060400160405280600681526020017f686572657265000000000000000000000000000000000000000000000000000081525061384e565b60006011600083815260200190815260200160002060009054906101000a900473ffffffffffffffffffffffffffffffffffffffff1690508073ffffffffffffffffffffffffffffffffffffffff163373ffffffffffffffffffffffffffffffffffffffff16146122e957600080fd5b60006010600084815260200190815260200160002090506123b86040518060600160405280603c8152602001615d47603c913982600101805461232b90615ade565b80601f016020809104026020016040519081016040528092919081815260200182805461235790615ade565b80156123a45780601f10612379576101008083540402835291602001916123a4565b820191906000526020600020905b81548152906001019060200180831161238757829003601f168201915b505050505083600301548460050154613710565b6124906040518060400160405280601b81526020017f426f73732025732068617320257320485020616e6420257320414400000000008152506006600001805461240190615ade565b80601f016020809104026020016040519081016040528092919081815260200182805461242d90615ade565b801561247a5780601f1061244f5761010080835404028352916020019161247a565b820191906000526020600020905b81548152906001019060200180831161245d57829003601f168201915b5050505050600660020154600660040154613710565b60008160030154116124d7576040517f08c379a00000000000000000000000000000000000000000000000000000000081526004016124ce90615574565b60405180910390fd5b60006006600201541161251f576040517f08c379a0000000000000000000000000000000000000000000000000000000008152600401612516906155f4565b60405180910390fd5b8060050154600660020154101561254057600060066002018190555061255f565b806005015460066002015461255591906159f4565b6006600201819055505b6006600401548160030154101561257f576000816003018190555061259d565b600660040154816003015461259491906159f4565b81600301819055505b6125c4604051806060016040528060258152602001615cb4602591396006600201546137b2565b6125ea604051806060016040528060338152602001615d836033913982600301546137b2565b7fa8f68fa0afad68f1577a1c5c66c297b751442bbab5e98c25f07ee510a921558c600660020154826003015485604051612626939291906157b5565b60405180910390a1505050565b6000600560008473ffffffffffffffffffffffffffffffffffffffff1673ffffffffffffffffffffffffffffffffffffffff16815260200190815260200160002060008373ffffffffffffffffffffffffffffffffffffffff1673ffffffffffffffffffffffffffffffffffffffff16815260200190815260200160002060009054906101000a900460ff16905092915050565b60006126d3600e6138e7565b90506126df33826138f5565b604051806101200160405280838152602001600f848154811061272b577f4e487b7100000000000000000000000000000000000000000000000000000000600052603260045260246000fd5b9060005260206000209060090201600101805461274790615ade565b80601f016020809104026020016040519081016040528092919081815260200182805461277390615ade565b80156127c05780601f10612795576101008083540402835291602001916127c0565b820191906000526020600020905b8154815290600101906020018083116127a357829003601f168201915b50505050508152602001600f8481548110612804577f4e487b7100000000000000000000000000000000000000000000000000000000600052603260045260246000fd5b9060005260206000209060090201600201805461282090615ade565b80601f016020809104026020016040519081016040528092919081815260200182805461284c90615ade565b80156128995780601f1061286e57610100808354040283529160200191612899565b820191906000526020600020905b81548152906001019060200180831161287c57829003601f168201915b50505050508152602001600f84815481106128dd577f4e487b7100000000000000000000000000000000000000000000000000000000600052603260045260246000fd5b9060005260206000209060090201600301548152602001600f848154811061292e577f4e487b7100000000000000000000000000000000000000000000000000000000600052603260045260246000fd5b9060005260206000209060090201600301548152602001600f848154811061297f577f4e487b7100000000000000000000000000000000000000000000000000000000600052603260045260246000fd5b9060005260206000209060090201600501548152602001600f84815481106129d0577f4e487b7100000000000000000000000000000000000000000000000000000000600052603260045260246000fd5b9060005260206000209060090201600601548152602001600f8481548110612a21577f4e487b7100000000000000000000000000000000000000000000000000000000600052603260045260246000fd5b90600052602060002090600902016007018054612a3d90615ade565b80601f0160208091040260200160405190810160405280929190818152602001828054612a6990615ade565b8015612ab65780601f10612a8b57610100808354040283529160200191612ab6565b820191906000526020600020905b815481529060010190602001808311612a9957829003601f168201915b50505050508152602001600f8481548110612afa577f4e487b7100000000000000000000000000000000000000000000000000000000600052603260045260246000fd5b90600052602060002090600902016008015481525060106000838152602001908152602001600020600082015181600001556020820151816001019080519060200190612b48929190613e90565b506040820151816002019080519060200190612b65929190613e90565b50606082015181600301556080820151816004015560a0820151816005015560c0820151816006015560e0820151816007019080519060200190612baa929190613e90565b506101008201518160080155905050612bdc6040518060600160405280602e8152602001615d19602e91398284613913565b336011600083815260200190815260200160002060006101000a81548173ffffffffffffffffffffffffffffffffffffffff021916908373ffffffffffffffffffffffffffffffffffffffff16021790555080601260003373ffffffffffffffffffffffffffffffffffffffff1673ffffffffffffffffffffffffffffffffffffffff16815260200190815260200160002081905550601360003373ffffffffffffffffffffffffffffffffffffffff1673ffffffffffffffffffffffffffffffffffffffff168152602001908152602001600020819080600181540180825580915050600190039060005260206000200160009091909190915055612ce2600e612e62565b7f4bc303fd457a97b4691b9af582ce71868a3d258638c8d4f8c60988a0f0bfb8cd338284604051612d1593929190615229565b60405180910390a15050565b612dbd84848484604051602401612d3b9493929190615326565b6040516020818303038152906040527f8d142cdd000000000000000000000000000000000000000000000000000000007bffffffffffffffffffffffffffffffffffffffffffffffffffffffff19166020820180517bffffffffffffffffffffffffffffffffffffffffffffffffffffffff83818316178352505050506139b2565b50505050565b612e5d838383604051602401612ddb939291906152e1565b6040516020818303038152906040527ff362ca59000000000000000000000000000000000000000000000000000000007bffffffffffffffffffffffffffffffffffffffffffffffffffffffff19166020820180517bffffffffffffffffffffffffffffffffffffffffffffffffffffffff83818316178352505050506139b2565b505050565b6001816000016000828254019250508190555050565b60007f01ffc9a7000000000000000000000000000000000000000000000000000000007bffffffffffffffffffffffffffffffffffffffffffffffffffffffff1916827bffffffffffffffffffffffffffffffffffffffffffffffffffffffff1916149050919050565b60008073ffffffffffffffffffffffffffffffffffffffff166002600084815260200190815260200160002060009054906101000a900473ffffffffffffffffffffffffffffffffffffffff1673ffffffffffffffffffffffffffffffffffffffff1614159050919050565b600033905090565b816004600083815260200190815260200160002060006101000a81548173ffffffffffffffffffffffffffffffffffffffff021916908373ffffffffffffffffffffffffffffffffffffffff160217905550808273ffffffffffffffffffffffffffffffffffffffff16612fc983610f28565b73ffffffffffffffffffffffffffffffffffffffff167f8c5be1e5ebec7d5bd14f71427d1e84f3dd0314c0f7b2291e5b200ac8c7c3b92560405160405180910390a45050565b600061301a82612ee2565b613059576040517f08c379a000000000000000000000000000000000000000000000000000000000815260040161305090615554565b60405180910390fd5b600061306483610f28565b90508073ffffffffffffffffffffffffffffffffffffffff168473ffffffffffffffffffffffffffffffffffffffff1614806130d357508373ffffffffffffffffffffffffffffffffffffffff166130bb84610cd8565b73ffffffffffffffffffffffffffffffffffffffff16145b806130e457506130e38185612633565b5b91505092915050565b8273ffffffffffffffffffffffffffffffffffffffff1661310d82610f28565b73ffffffffffffffffffffffffffffffffffffffff1614613163576040517f08c379a000000000000000000000000000000000000000000000000000000000815260040161315a90615654565b60405180910390fd5b600073ffffffffffffffffffffffffffffffffffffffff168273ffffffffffffffffffffffffffffffffffffffff1614156131d3576040517f08c379a00000000000000000000000000000000000000000000000000000000081526004016131ca90615514565b60405180910390fd5b6131de8383836139db565b6131e9600082612f56565b6001600360008573ffffffffffffffffffffffffffffffffffffffff1673ffffffffffffffffffffffffffffffffffffffff168152602001908152602001600020600082825461323991906159f4565b925050819055506001600360008473ffffffffffffffffffffffffffffffffffffffff1673ffffffffffffffffffffffffffffffffffffffff16815260200190815260200160002060008282546132909190615913565b92505081905550816002600083815260200190815260200160002060006101000a81548173ffffffffffffffffffffffffffffffffffffffff021916908373ffffffffffffffffffffffffffffffffffffffff160217905550808273ffffffffffffffffffffffffffffffffffffffff168473ffffffffffffffffffffffffffffffffffffffff167fddf252ad1be2c89b69c2b068fc378daa952ba7f163c4a11628f55a4df523b3ef60405160405180910390a4505050565b6133548484846130ed565b613360848484846139e0565b61339f576040517f08c379a0000000000000000000000000000000000000000000000000000000008152600401613396906154d4565b60405180910390fd5b50505050565b606060008214156133ed576040518060400160405280600181526020017f3000000000000000000000000000000000000000000000000000000000000000815250905061354d565b600082905060005b6000821461341f57808061340890615b10565b915050600a826134189190615969565b91506133f5565b60008167ffffffffffffffff811115613461577f4e487b7100000000000000000000000000000000000000000000000000000000600052604160045260246000fd5b6040519080825280601f01601f1916602001820160405280156134935781602001600182028036833780820191505090505b5090505b60008514613546576001826134ac91906159f4565b9150600a856134bb9190615b59565b60306134c79190615913565b60f81b818381518110613503577f4e487b7100000000000000000000000000000000000000000000000000000000600052603260045260246000fd5b60200101907effffffffffffffffffffffffffffffffffffffffffffffffffffffffffffff1916908160001a905350600a8561353f9190615969565b9450613497565b8093505050505b919050565b6060600082519050600081141561357b576040518060200160405280600081525091505061370b565b6000600360028361358c9190615913565b6135969190615969565b60046135a2919061599a565b905060006020826135b39190615913565b67ffffffffffffffff8111156135f2577f4e487b7100000000000000000000000000000000000000000000000000000000600052604160045260246000fd5b6040519080825280601f01601f1916602001820160405280156136245781602001600182028036833780820191505090505b5090506000604051806060016040528060408152602001615cd9604091399050600181016020830160005b868110156136c85760038101905062ffffff818a015116603f8160121c168401518060081b905060ff603f83600c1c1686015116810190508060081b905060ff603f8360061c1686015116810190508060081b905060ff603f831686015116810190508060e01b9050808452600484019350505061364f565b5060038606600181146136e257600281146136f2576136fd565b613d3d60f01b60028303526136fd565b603d60f81b60018303525b508484525050819450505050505b919050565b6137ac8484848460405160240161372a9493929190615380565b6040516020818303038152906040527fd5cf17d0000000000000000000000000000000000000000000000000000000007bffffffffffffffffffffffffffffffffffffffffffffffffffffffff19166020820180517bffffffffffffffffffffffffffffffffffffffffffffffffffffffff83818316178352505050506139b2565b50505050565b61384a82826040516024016137c8929190615466565b6040516020818303038152906040527f9710a9d0000000000000000000000000000000000000000000000000000000007bffffffffffffffffffffffffffffffffffffffffffffffffffffffff19166020820180517bffffffffffffffffffffffffffffffffffffffffffffffffffffffff83818316178352505050506139b2565b5050565b6138e48160405160240161386291906152bf565b6040516020818303038152906040527f41304fac000000000000000000000000000000000000000000000000000000007bffffffffffffffffffffffffffffffffffffffffffffffffffffffff19166020820180517bffffffffffffffffffffffffffffffffffffffffffffffffffffffff83818316178352505050506139b2565b50565b600081600001549050919050565b61390f828260405180602001604052806000815250613b77565b5050565b6139ad83838360405160240161392b93929190615496565b6040516020818303038152906040527f969cdd03000000000000000000000000000000000000000000000000000000007bffffffffffffffffffffffffffffffffffffffffffffffffffffffff19166020820180517bffffffffffffffffffffffffffffffffffffffffffffffffffffffff83818316178352505050506139b2565b505050565b60008151905060006a636f6e736f6c652e6c6f679050602083016000808483855afa5050505050565b505050565b6000613a018473ffffffffffffffffffffffffffffffffffffffff16613bd2565b15613b6a578373ffffffffffffffffffffffffffffffffffffffff1663150b7a02613a2a612f4e565b8786866040518563ffffffff1660e01b8152600401613a4c94939291906151dd565b602060405180830381600087803b158015613a6657600080fd5b505af1925050508015613a9757506040513d601f19601f82011682018060405250810190613a9491906141d4565b60015b613b1a573d8060008114613ac7576040519150601f19603f3d011682016040523d82523d6000602084013e613acc565b606091505b50600081511415613b12576040517f08c379a0000000000000000000000000000000000000000000000000000000008152600401613b09906154d4565b60405180910390fd5b805181602001fd5b63150b7a0260e01b7bffffffffffffffffffffffffffffffffffffffffffffffffffffffff1916817bffffffffffffffffffffffffffffffffffffffffffffffffffffffff191614915050613b6f565b600190505b949350505050565b613b818383613be5565b613b8e60008484846139e0565b613bcd576040517f08c379a0000000000000000000000000000000000000000000000000000000008152600401613bc4906154d4565b60405180910390fd5b505050565b600080823b905060008111915050919050565b600073ffffffffffffffffffffffffffffffffffffffff168273ffffffffffffffffffffffffffffffffffffffff161415613c55576040517f08c379a0000000000000000000000000000000000000000000000000000000008152600401613c4c90615614565b60405180910390fd5b613c5e81612ee2565b15613c9e576040517f08c379a0000000000000000000000000000000000000000000000000000000008152600401613c95906154f4565b60405180910390fd5b613caa600083836139db565b6001600360008473ffffffffffffffffffffffffffffffffffffffff1673ffffffffffffffffffffffffffffffffffffffff1681526020019081526020016000206000828254613cfa9190615913565b92505081905550816002600083815260200190815260200160002060006101000a81548173ffffffffffffffffffffffffffffffffffffffff021916908373ffffffffffffffffffffffffffffffffffffffff160217905550808273ffffffffffffffffffffffffffffffffffffffff16600073ffffffffffffffffffffffffffffffffffffffff167fddf252ad1be2c89b69c2b068fc378daa952ba7f163c4a11628f55a4df523b3ef60405160405180910390a45050565b6040518061012001604052806060815260200160608152602001600081526020016000815260200160008152602001600081526020016060815260200160008152602001600081525090565b60405180610100016040528060608152602001606081526020016000815260200160008152602001600081526020016000815260200160608152602001600081525090565b6040518061012001604052806000815260200160608152602001606081526020016000815260200160008152602001600081526020016000815260200160608152602001600081525090565b828054613e9c90615ade565b90600052602060002090601f016020900481019282613ebe5760008555613f05565b82601f10613ed757805160ff1916838001178555613f05565b82800160010185558215613f05579182015b82811115613f04578251825591602001919060010190613ee9565b5b509050613f129190613f16565b5090565b5b80821115613f2f576000816000905550600101613f17565b5090565b6000613f46613f418461581d565b6157ec565b905082815260208101848484011115613f5e57600080fd5b613f69848285615a9c565b509392505050565b600081359050613f8081615c57565b92915050565b600081359050613f9581615c6e565b92915050565b600081359050613faa81615c85565b92915050565b600081519050613fbf81615c85565b92915050565b600082601f830112613fd657600080fd5b8135613fe6848260208601613f33565b91505092915050565b600081359050613ffe81615c9c565b92915050565b60006020828403121561401657600080fd5b600061402484828501613f71565b91505092915050565b6000806040838503121561404057600080fd5b600061404e85828601613f71565b925050602061405f85828601613f71565b9150509250929050565b60008060006060848603121561407e57600080fd5b600061408c86828701613f71565b935050602061409d86828701613f71565b92505060406140ae86828701613fef565b9150509250925092565b600080600080608085870312156140ce57600080fd5b60006140dc87828801613f71565b94505060206140ed87828801613f71565b93505060406140fe87828801613fef565b925050606085013567ffffffffffffffff81111561411b57600080fd5b61412787828801613fc5565b91505092959194509250565b6000806040838503121561414657600080fd5b600061415485828601613f71565b925050602061416585828601613f86565b9150509250929050565b6000806040838503121561418257600080fd5b600061419085828601613f71565b92505060206141a185828601613fef565b9150509250929050565b6000602082840312156141bd57600080fd5b60006141cb84828501613f9b565b91505092915050565b6000602082840312156141e657600080fd5b60006141f484828501613fb0565b91505092915050565b60006020828403121561420f57600080fd5b600061421d84828501613fef565b91505092915050565b60006142328383614e1c565b905092915050565b60006142468383614fc2565b905092915050565b61425781615a28565b82525050565b60006142688261586d565b61427281856158b3565b9350836020820285016142848561584d565b8060005b858110156142c057848403895281516142a18582614226565b94506142ac83615899565b925060208a01995050600181019050614288565b50829750879550505050505092915050565b60006142dd82615878565b6142e781856158c4565b9350836020820285016142f98561585d565b8060005b858110156143355784840389528151614316858261423a565b9450614321836158a6565b925060208a019950506001810190506142fd565b50829750879550505050505092915050565b61435081615a3a565b82525050565b600061436182615883565b61436b81856158d5565b935061437b818560208601615aab565b61438481615c46565b840191505092915050565b600061439a8261588e565b6143a481856158e6565b93506143b4818560208601615aab565b6143bd81615c46565b840191505092915050565b60006143d38261588e565b6143dd81856158f7565b93506143ed818560208601615aab565b6143f681615c46565b840191505092915050565b600061440c8261588e565b6144168185615908565b9350614426818560208601615aab565b80840191505092915050565b600061443f600b83615908565b91507f202d2d204e465420233a200000000000000000000000000000000000000000006000830152600b82019050919050565b600061447f6032836158f7565b91507f4552433732313a207472616e7366657220746f206e6f6e20455243373231526560008301527f63656976657220696d706c656d656e74657200000000000000000000000000006020830152604082019050919050565b60006144e5601c836158f7565b91507f4552433732313a20746f6b656e20616c7265616479206d696e746564000000006000830152602082019050919050565b6000614525600e83615908565b91507f2c20226d61785f76616c7565223a0000000000000000000000000000000000006000830152600e82019050919050565b60006145656024836158f7565b91507f4552433732313a207472616e7366657220746f20746865207a65726f2061646460008301527f72657373000000000000000000000000000000000000000000000000000000006020830152604082019050919050565b60006145cb6019836158f7565b91507f4552433732313a20617070726f766520746f2063616c6c6572000000000000006000830152602082019050919050565b600061460b602c836158f7565b91507f4552433732313a206f70657261746f7220717565727920666f72206e6f6e657860008301527f697374656e7420746f6b656e00000000000000000000000000000000000000006020830152604082019050919050565b6000614671601b836158f7565b91507f4572726f723a20706f6b656d6f6e206973206f7574206f6620485000000000006000830152602082019050919050565b60006146b16038836158f7565b91507f4552433732313a20617070726f76652063616c6c6572206973206e6f74206f7760008301527f6e6572206e6f7220617070726f76656420666f7220616c6c00000000000000006020830152604082019050919050565b6000614717602a836158f7565b91507f4552433732313a2062616c616e636520717565727920666f7220746865207a6560008301527f726f2061646472657373000000000000000000000000000000000000000000006020830152604082019050919050565b600061477d602a83615908565b91507f7d2c207b202274726169745f74797065223a20224d6f7665204e616d65222c2060008301527f2276616c7565223a2022000000000000000000000000000000000000000000006020830152602a82019050919050565b60006147e36029836158f7565b91507f4552433732313a206f776e657220717565727920666f72206e6f6e657869737460008301527f656e7420746f6b656e00000000000000000000000000000000000000000000006020830152604082019050919050565b6000614849601a836158f7565b91507f4572726f723a204d657774776f206973206f7574206f662048500000000000006000830152602082019050919050565b60006148896020836158f7565b91507f4552433732313a206d696e7420746f20746865207a65726f20616464726573736000830152602082019050919050565b60006148c9600383615908565b91507f7d5d7d00000000000000000000000000000000000000000000000000000000006000830152600382019050919050565b6000614909602c836158f7565b91507f4552433732313a20617070726f76656420717565727920666f72206e6f6e657860008301527f697374656e7420746f6b656e00000000000000000000000000000000000000006020830152604082019050919050565b600061496f603083615908565b91507f227d2c207b202274726169745f74797065223a2022437269746963616c20436860008301527f616e6365222c202276616c7565223a20000000000000000000000000000000006020830152603082019050919050565b60006149d56029836158f7565b91507f4552433732313a207472616e73666572206f6620746f6b656e2074686174206960008301527f73206e6f74206f776e00000000000000000000000000000000000000000000006020830152604082019050919050565b6000614a3b600a83615908565b91507f7b226e616d65223a2022000000000000000000000000000000000000000000006000830152600a82019050919050565b6000614a7b6021836158f7565b91507f4552433732313a20617070726f76616c20746f2063757272656e74206f776e6560008301527f72000000000000000000000000000000000000000000000000000000000000006020830152604082019050919050565b6000614ae1601d83615908565b91507f646174613a6170706c69636174696f6e2f6a736f6e3b6261736536342c0000006000830152601d82019050919050565b6000614b216031836158f7565b91507f4552433732313a207472616e736665722063616c6c6572206973206e6f74206f60008301527f776e6572206e6f7220617070726f7665640000000000000000000000000000006020830152604082019050919050565b6000614b87606c83615908565b91507f222c20226465736372697074696f6e223a20225468697320697320616e204e4660008301527f542074686174206c6574732070656f706c6520706c617920696e20746865206760208301527f616d6520506f6b656d6f6e3a20526576656e6765206f66204d657774776f212260408301527f2c2022696d616765223a202200000000000000000000000000000000000000006060830152606c82019050919050565b6000614c39603d83615908565b91507f222c202261747472696275746573223a205b207b202274726169745f7479706560008301527f223a20224865616c746820506f696e7473222c202276616c7565223a200000006020830152603d82019050919050565b6000614c9f602d83615908565b91507f7d2c207b202274726169745f74797065223a202241747461636b2044616d616760008301527f65222c202276616c7565223a20000000000000000000000000000000000000006020830152602d82019050919050565b6000614d05602783615908565b91507f7d2c207b202274726169745f74797065223a2022446566656e7365222c20227660008301527f616c7565223a20000000000000000000000000000000000000000000000000006020830152602782019050919050565b6000610100830160008301518482036000860152614d7c828261438f565b91505060208301518482036020860152614d96828261438f565b9150506040830151614dab6040860182615095565b506060830151614dbe6060860182615095565b506080830151614dd16080860182615095565b5060a0830151614de460a0860182615095565b5060c083015184820360c0860152614dfc828261438f565b91505060e0830151614e1160e0860182615095565b508091505092915050565b600061012083016000830151614e356000860182615095565b5060208301518482036020860152614e4d828261438f565b91505060408301518482036040860152614e67828261438f565b9150506060830151614e7c6060860182615095565b506080830151614e8f6080860182615095565b5060a0830151614ea260a0860182615095565b5060c0830151614eb560c0860182615095565b5060e083015184820360e0860152614ecd828261438f565b915050610100830151614ee4610100860182615095565b508091505092915050565b600061012083016000830151614f086000860182615095565b5060208301518482036020860152614f20828261438f565b91505060408301518482036040860152614f3a828261438f565b9150506060830151614f4f6060860182615095565b506080830151614f626080860182615095565b5060a0830151614f7560a0860182615095565b5060c0830151614f8860c0860182615095565b5060e083015184820360e0860152614fa0828261438f565b915050610100830151614fb7610100860182615095565b508091505092915050565b6000610120830160008301518482036000860152614fe0828261438f565b91505060208301518482036020860152614ffa828261438f565b915050604083015161500f6040860182615095565b5060608301516150226060860182615095565b5060808301516150356080860182615095565b5060a083015161504860a0860182615095565b5060c083015184820360c0860152615060828261438f565b91505060e083015161507560e0860182615095565b5061010083015161508a610100860182615095565b508091505092915050565b61509e81615a92565b82525050565b6150ad81615a92565b82525050565b60006150be82614a2e565b91506150ca828c614401565b91506150d582614432565b91506150e1828b614401565b91506150ec82614b7a565b91506150f8828a614401565b915061510382614c2c565b915061510f8289614401565b915061511a82614518565b91506151268288614401565b915061513182614c92565b915061513d8287614401565b915061514882614cf8565b91506151548286614401565b915061515f82614770565b915061516b8285614401565b915061517682614962565b91506151828284614401565b915061518d826148bc565b91508190509a9950505050505050505050565b60006151ab82614ad4565b91506151b78284614401565b915081905092915050565b60006020820190506151d7600083018461424e565b92915050565b60006080820190506151f2600083018761424e565b6151ff602083018661424e565b61520c60408301856150a4565b818103606083015261521e8184614356565b905095945050505050565b600060608201905061523e600083018661424e565b61524b60208301856150a4565b61525860408301846150a4565b949350505050565b6000602082019050818103600083015261527a818461425d565b905092915050565b6000602082019050818103600083015261529c81846142d2565b905092915050565b60006020820190506152b96000830184614347565b92915050565b600060208201905081810360008301526152d981846143c8565b905092915050565b600060608201905081810360008301526152fb81866143c8565b9050818103602083015261530f81856143c8565b905061531e60408301846150a4565b949350505050565b6000608082019050818103600083015261534081876143c8565b9050818103602083015261535481866143c8565b905061536360408301856150a4565b818103606083015261537581846143c8565b905095945050505050565b6000608082019050818103600083015261539a81876143c8565b905081810360208301526153ae81866143c8565b90506153bd60408301856150a4565b6153ca60608301846150a4565b95945050505050565b60006101008201905081810360008301526153ee818b6143c8565b90508181036020830152615402818a6143c8565b905061541160408301896150a4565b61541e60608301886150a4565b61542b60808301876150a4565b61543860a08301866150a4565b81810360c083015261544a81856143c8565b905061545960e08301846150a4565b9998505050505050505050565b6000604082019050818103600083015261548081856143c8565b905061548f60208301846150a4565b9392505050565b600060608201905081810360008301526154b081866143c8565b90506154bf60208301856150a4565b6154cc60408301846150a4565b949350505050565b600060208201905081810360008301526154ed81614472565b9050919050565b6000602082019050818103600083015261550d816144d8565b9050919050565b6000602082019050818103600083015261552d81614558565b9050919050565b6000602082019050818103600083015261554d816145be565b9050919050565b6000602082019050818103600083015261556d816145fe565b9050919050565b6000602082019050818103600083015261558d81614664565b9050919050565b600060208201905081810360008301526155ad816146a4565b9050919050565b600060208201905081810360008301526155cd8161470a565b9050919050565b600060208201905081810360008301526155ed816147d6565b9050919050565b6000602082019050818103600083015261560d8161483c565b9050919050565b6000602082019050818103600083015261562d8161487c565b9050919050565b6000602082019050818103600083015261564d816148fc565b9050919050565b6000602082019050818103600083015261566d816149c8565b9050919050565b6000602082019050818103600083015261568d81614a6e565b9050919050565b600060208201905081810360008301526156ad81614b14565b9050919050565b600060208201905081810360008301526156ce8184614d5e565b905092915050565b600060208201905081810360008301526156f08184614eef565b905092915050565b600060208201905061570d60008301846150a4565b92915050565b600061012082019050615729600083018c6150a4565b818103602083015261573b818b6143c8565b9050818103604083015261574f818a6143c8565b905061575e60608301896150a4565b61576b60808301886150a4565b61577860a08301876150a4565b61578560c08301866150a4565b81810360e083015261579781856143c8565b90506157a76101008301846150a4565b9a9950505050505050505050565b60006060820190506157ca60008301866150a4565b6157d760208301856150a4565b6157e460408301846150a4565b949350505050565b6000604051905081810181811067ffffffffffffffff8211171561581357615812615c17565b5b8060405250919050565b600067ffffffffffffffff82111561583857615837615c17565b5b601f19601f8301169050602081019050919050565b6000819050602082019050919050565b6000819050602082019050919050565b600081519050919050565b600081519050919050565b600081519050919050565b600081519050919050565b6000602082019050919050565b6000602082019050919050565b600082825260208201905092915050565b600082825260208201905092915050565b600082825260208201905092915050565b600082825260208201905092915050565b600082825260208201905092915050565b600081905092915050565b600061591e82615a92565b915061592983615a92565b9250827fffffffffffffffffffffffffffffffffffffffffffffffffffffffffffffffff0382111561595e5761595d615b8a565b5b828201905092915050565b600061597482615a92565b915061597f83615a92565b92508261598f5761598e615bb9565b5b828204905092915050565b60006159a582615a92565b91506159b083615a92565b9250817fffffffffffffffffffffffffffffffffffffffffffffffffffffffffffffffff04831182151516156159e9576159e8615b8a565b5b828202905092915050565b60006159ff82615a92565b9150615a0a83615a92565b925082821015615a1d57615a1c615b8a565b5b828203905092915050565b6000615a3382615a72565b9050919050565b60008115159050919050565b60007fffffffff0000000000000000000000000000000000000000000000000000000082169050919050565b600073ffffffffffffffffffffffffffffffffffffffff82169050919050565b6000819050919050565b82818337600083830152505050565b60005b83811015615ac9578082015181840152602081019050615aae565b83811115615ad8576000848401525b50505050565b60006002820490506001821680615af657607f821691505b60208210811415615b0a57615b09615be8565b5b50919050565b6000615b1b82615a92565b91507fffffffffffffffffffffffffffffffffffffffffffffffffffffffffffffffff821415615b4e57615b4d615b8a565b5b600182019050919050565b6000615b6482615a92565b9150615b6f83615a92565b925082615b7f57615b7e615bb9565b5b828206905092915050565b7f4e487b7100000000000000000000000000000000000000000000000000000000600052601160045260246000fd5b7f4e487b7100000000000000000000000000000000000000000000000000000000600052601260045260246000fd5b7f4e487b7100000000000000000000000000000000000000000000000000000000600052602260045260246000fd5b7f4e487b7100000000000000000000000000000000000000000000000000000000600052604160045260246000fd5b6000601f19601f8301169050919050565b615c6081615a28565b8114615c6b57600080fd5b50565b615c7781615a3a565b8114615c8257600080fd5b50565b615c8e81615a46565b8114615c9957600080fd5b50565b615ca581615a92565b8114615cb057600080fd5b5056fe506c617965722061747461636b656420626f73732e204e657720626f73732068703a2025734142434445464748494a4b4c4d4e4f505152535455565758595a6162636465666768696a6b6c6d6e6f707172737475767778797a303132333435363738392b2f4d696e746564204e465420772f20746f6b656e496420257320616e6420636861726163746572496e6465782025730a506c6179657220772f206368617261637465722025732061626f757420746f2061747461636b2e2048617320257320485020616e64202573204144426f73732061747461636b656420706c61796572277320706f6b656d6f6e2e204e657720706f6b656d6f6e2068703a2025730aa2646970667358221220949d46c6cedbedec85ad695a513652ecb2bc80c8c5ec872c62c553e114afefce64736f6c63430008000033616e64202c206d6f7665206e616d652025732c2061747461636b2064616d616765202573446f6e6520696e697469616c697a696e6720257320772f2048502025732c20696d67202573446f6e6520696e697469616c697a696e6720626f737320257320772f2048502025732c20696d67202573",
  "linkReferences": {},
  "deployedLinkReferences": {}
}