{
  "_format": "hh-sol-artifact-1",
  "contractName": "MyEpicGame",
  "sourceName": "contracts/MyEpicGame.sol",
  "abi": [
    {
      "inputs": [
        {
          "internalType": "string[]",
          "name": "characterNames",
          "type": "string[]"
        },
        {
          "internalType": "string[]",
          "name": "characterImageURIs",
          "type": "string[]"
        },
        {
          "internalType": "uint256[]",
          "name": "characterHp",
          "type": "uint256[]"
        },
        {
          "internalType": "uint256[]",
          "name": "characterAttackDmg",
          "type": "uint256[]"
        },
        {
          "internalType": "uint256[]",
          "name": "characterDefense",
          "type": "uint256[]"
        },
        {
          "internalType": "string[]",
          "name": "characterMoveName",
          "type": "string[]"
        },
        {
          "internalType": "uint256[]",
          "name": "characterCritChance",
          "type": "uint256[]"
        },
        {
          "components": [
            {
              "internalType": "string",
              "name": "name",
              "type": "string"
            },
            {
              "internalType": "string",
              "name": "imageURI",
              "type": "string"
            },
            {
              "internalType": "uint256",
              "name": "hp",
              "type": "uint256"
            },
            {
              "internalType": "uint256",
              "name": "attackDamage",
              "type": "uint256"
            },
            {
              "internalType": "uint256",
              "name": "defense",
              "type": "uint256"
            },
            {
              "internalType": "string",
              "name": "moveName",
              "type": "string"
            },
            {
              "internalType": "uint256",
              "name": "critChance",
              "type": "uint256"
            }
          ],
          "internalType": "struct MyEpicGame.BigBossArguments",
          "name": "bossData",
          "type": "tuple"
        }
      ],
      "stateMutability": "nonpayable",
      "type": "constructor"
    },
    {
      "anonymous": false,
      "inputs": [
        {
          "indexed": true,
          "internalType": "address",
          "name": "owner",
          "type": "address"
        },
        {
          "indexed": true,
          "internalType": "address",
          "name": "approved",
          "type": "address"
        },
        {
          "indexed": true,
          "internalType": "uint256",
          "name": "tokenId",
          "type": "uint256"
        }
      ],
      "name": "Approval",
      "type": "event"
    },
    {
      "anonymous": false,
      "inputs": [
        {
          "indexed": true,
          "internalType": "address",
          "name": "owner",
          "type": "address"
        },
        {
          "indexed": true,
          "internalType": "address",
          "name": "operator",
          "type": "address"
        },
        {
          "indexed": false,
          "internalType": "bool",
          "name": "approved",
          "type": "bool"
        }
      ],
      "name": "ApprovalForAll",
      "type": "event"
    },
    {
      "anonymous": false,
      "inputs": [
        {
          "indexed": false,
          "internalType": "uint256",
          "name": "newBossHp",
          "type": "uint256"
        },
        {
          "indexed": false,
          "internalType": "uint256",
          "name": "newPlayerHp",
          "type": "uint256"
        }
      ],
      "name": "AttackComplete",
      "type": "event"
    },
    {
      "anonymous": false,
      "inputs": [
        {
          "indexed": false,
          "internalType": "address",
          "name": "sender",
          "type": "address"
        },
        {
          "indexed": false,
          "internalType": "uint256",
          "name": "tokenId",
          "type": "uint256"
        },
        {
          "indexed": false,
          "internalType": "uint256",
          "name": "characterIndex",
          "type": "uint256"
        }
      ],
      "name": "CharacterNFTMinted",
      "type": "event"
    },
    {
      "anonymous": false,
      "inputs": [
        {
          "indexed": true,
          "internalType": "address",
          "name": "from",
          "type": "address"
        },
        {
          "indexed": true,
          "internalType": "address",
          "name": "to",
          "type": "address"
        },
        {
          "indexed": true,
          "internalType": "uint256",
          "name": "tokenId",
          "type": "uint256"
        }
      ],
      "name": "Transfer",
      "type": "event"
    },
    {
      "inputs": [
        {
          "internalType": "address",
          "name": "to",
          "type": "address"
        },
        {
          "internalType": "uint256",
          "name": "tokenId",
          "type": "uint256"
        }
      ],
      "name": "approve",
      "outputs": [],
      "stateMutability": "nonpayable",
      "type": "function"
    },
    {
      "inputs": [],
      "name": "attackBoss",
      "outputs": [],
      "stateMutability": "nonpayable",
      "type": "function"
    },
    {
      "inputs": [
        {
          "internalType": "address",
          "name": "owner",
          "type": "address"
        }
      ],
      "name": "balanceOf",
      "outputs": [
        {
          "internalType": "uint256",
          "name": "",
          "type": "uint256"
        }
      ],
      "stateMutability": "view",
      "type": "function"
    },
    {
      "inputs": [],
      "name": "bigBoss",
      "outputs": [
        {
          "internalType": "string",
          "name": "name",
          "type": "string"
        },
        {
          "internalType": "string",
          "name": "imageURI",
          "type": "string"
        },
        {
          "internalType": "uint256",
          "name": "hp",
          "type": "uint256"
        },
        {
          "internalType": "uint256",
          "name": "maxHp",
          "type": "uint256"
        },
        {
          "internalType": "uint256",
          "name": "attackDamage",
          "type": "uint256"
        },
        {
          "internalType": "uint256",
          "name": "defense",
          "type": "uint256"
        },
        {
          "internalType": "string",
          "name": "moveName",
          "type": "string"
        },
        {
          "internalType": "uint256",
          "name": "critChance",
          "type": "uint256"
        }
      ],
      "stateMutability": "view",
      "type": "function"
    },
    {
      "inputs": [],
      "name": "checkIfUserHasNFT",
      "outputs": [
        {
          "components": [
            {
              "internalType": "uint256",
              "name": "characterIndex",
              "type": "uint256"
            },
            {
              "internalType": "string",
              "name": "name",
              "type": "string"
            },
            {
              "internalType": "string",
              "name": "imageURI",
              "type": "string"
            },
            {
              "internalType": "uint256",
              "name": "hp",
              "type": "uint256"
            },
            {
              "internalType": "uint256",
              "name": "maxHp",
              "type": "uint256"
            },
            {
              "internalType": "uint256",
              "name": "attackDamage",
              "type": "uint256"
            },
            {
              "internalType": "uint256",
              "name": "defense",
              "type": "uint256"
            },
            {
              "internalType": "string",
              "name": "moveName",
              "type": "string"
            },
            {
              "internalType": "uint256",
              "name": "critChance",
              "type": "uint256"
            }
          ],
          "internalType": "struct MyEpicGame.CharacterAttributes",
          "name": "",
          "type": "tuple"
        }
      ],
      "stateMutability": "view",
      "type": "function"
    },
    {
      "inputs": [],
      "name": "getAllDefaultCharacters",
      "outputs": [
        {
          "components": [
            {
              "internalType": "uint256",
              "name": "characterIndex",
              "type": "uint256"
            },
            {
              "internalType": "string",
              "name": "name",
              "type": "string"
            },
            {
              "internalType": "string",
              "name": "imageURI",
              "type": "string"
            },
            {
              "internalType": "uint256",
              "name": "hp",
              "type": "uint256"
            },
            {
              "internalType": "uint256",
              "name": "maxHp",
              "type": "uint256"
            },
            {
              "internalType": "uint256",
              "name": "attackDamage",
              "type": "uint256"
            },
            {
              "internalType": "uint256",
              "name": "defense",
              "type": "uint256"
            },
            {
              "internalType": "string",
              "name": "moveName",
              "type": "string"
            },
            {
              "internalType": "uint256",
              "name": "critChance",
              "type": "uint256"
            }
          ],
          "internalType": "struct MyEpicGame.CharacterAttributes[]",
          "name": "",
          "type": "tuple[]"
        }
      ],
      "stateMutability": "view",
      "type": "function"
    },
    {
      "inputs": [
        {
          "internalType": "uint256",
          "name": "tokenId",
          "type": "uint256"
        }
      ],
      "name": "getApproved",
      "outputs": [
        {
          "internalType": "address",
          "name": "",
          "type": "address"
        }
      ],
      "stateMutability": "view",
      "type": "function"
    },
    {
      "inputs": [],
      "name": "getBigBoss",
      "outputs": [
        {
          "components": [
            {
              "internalType": "string",
              "name": "name",
              "type": "string"
            },
            {
              "internalType": "string",
              "name": "imageURI",
              "type": "string"
            },
            {
              "internalType": "uint256",
              "name": "hp",
              "type": "uint256"
            },
            {
              "internalType": "uint256",
              "name": "maxHp",
              "type": "uint256"
            },
            {
              "internalType": "uint256",
              "name": "attackDamage",
              "type": "uint256"
            },
            {
              "internalType": "uint256",
              "name": "defense",
              "type": "uint256"
            },
            {
              "internalType": "string",
              "name": "moveName",
              "type": "string"
            },
            {
              "internalType": "uint256",
              "name": "critChance",
              "type": "uint256"
            }
          ],
          "internalType": "struct MyEpicGame.BigBoss",
          "name": "",
          "type": "tuple"
        }
      ],
      "stateMutability": "view",
      "type": "function"
    },
    {
      "inputs": [
        {
          "internalType": "address",
          "name": "owner",
          "type": "address"
        },
        {
          "internalType": "address",
          "name": "operator",
          "type": "address"
        }
      ],
      "name": "isApprovedForAll",
      "outputs": [
        {
          "internalType": "bool",
          "name": "",
          "type": "bool"
        }
      ],
      "stateMutability": "view",
      "type": "function"
    },
    {
      "inputs": [
        {
          "internalType": "uint256",
          "name": "_characterIndex",
          "type": "uint256"
        }
      ],
      "name": "mintCharacterNFT",
      "outputs": [],
      "stateMutability": "nonpayable",
      "type": "function"
    },
    {
      "inputs": [],
      "name": "name",
      "outputs": [
        {
          "internalType": "string",
          "name": "",
          "type": "string"
        }
      ],
      "stateMutability": "view",
      "type": "function"
    },
    {
      "inputs": [
        {
          "internalType": "uint256",
          "name": "tokenId",
          "type": "uint256"
        }
      ],
      "name": "ownerOf",
      "outputs": [
        {
          "internalType": "address",
          "name": "",
          "type": "address"
        }
      ],
      "stateMutability": "view",
      "type": "function"
    },
    {
      "inputs": [
        {
          "internalType": "address",
          "name": "",
          "type": "address"
        }
      ],
      "name": "ownerToPokemonId",
      "outputs": [
        {
          "internalType": "uint256",
          "name": "",
          "type": "uint256"
        }
      ],
      "stateMutability": "view",
      "type": "function"
    },
    {
      "inputs": [
        {
          "internalType": "address",
          "name": "",
          "type": "address"
        },
        {
          "internalType": "uint256",
          "name": "",
          "type": "uint256"
        }
      ],
      "name": "ownerToPokemons",
      "outputs": [
        {
          "internalType": "uint256",
          "name": "",
          "type": "uint256"
        }
      ],
      "stateMutability": "view",
      "type": "function"
    },
    {
      "inputs": [
        {
          "internalType": "uint256",
          "name": "",
          "type": "uint256"
        }
      ],
      "name": "pokemonAttributes",
      "outputs": [
        {
          "internalType": "uint256",
          "name": "characterIndex",
          "type": "uint256"
        },
        {
          "internalType": "string",
          "name": "name",
          "type": "string"
        },
        {
          "internalType": "string",
          "name": "imageURI",
          "type": "string"
        },
        {
          "internalType": "uint256",
          "name": "hp",
          "type": "uint256"
        },
        {
          "internalType": "uint256",
          "name": "maxHp",
          "type": "uint256"
        },
        {
          "internalType": "uint256",
          "name": "attackDamage",
          "type": "uint256"
        },
        {
          "internalType": "uint256",
          "name": "defense",
          "type": "uint256"
        },
        {
          "internalType": "string",
          "name": "moveName",
          "type": "string"
        },
        {
          "internalType": "uint256",
          "name": "critChance",
          "type": "uint256"
        }
      ],
      "stateMutability": "view",
      "type": "function"
    },
    {
      "inputs": [
        {
          "internalType": "uint256",
          "name": "",
          "type": "uint256"
        }
      ],
      "name": "pokemonToOwner",
      "outputs": [
        {
          "internalType": "address",
          "name": "",
          "type": "address"
        }
      ],
      "stateMutability": "view",
      "type": "function"
    },
    {
      "inputs": [
        {
          "internalType": "address",
          "name": "from",
          "type": "address"
        },
        {
          "internalType": "address",
          "name": "to",
          "type": "address"
        },
        {
          "internalType": "uint256",
          "name": "tokenId",
          "type": "uint256"
        }
      ],
      "name": "safeTransferFrom",
      "outputs": [],
      "stateMutability": "nonpayable",
      "type": "function"
    },
    {
      "inputs": [
        {
          "internalType": "address",
          "name": "from",
          "type": "address"
        },
        {
          "internalType": "address",
          "name": "to",
          "type": "address"
        },
        {
          "internalType": "uint256",
          "name": "tokenId",
          "type": "uint256"
        },
        {
          "internalType": "bytes",
          "name": "_data",
          "type": "bytes"
        }
      ],
      "name": "safeTransferFrom",
      "outputs": [],
      "stateMutability": "nonpayable",
      "type": "function"
    },
    {
      "inputs": [
        {
          "internalType": "address",
          "name": "operator",
          "type": "address"
        },
        {
          "internalType": "bool",
          "name": "approved",
          "type": "bool"
        }
      ],
      "name": "setApprovalForAll",
      "outputs": [],
      "stateMutability": "nonpayable",
      "type": "function"
    },
    {
      "inputs": [
        {
          "internalType": "bytes4",
          "name": "interfaceId",
          "type": "bytes4"
        }
      ],
      "name": "supportsInterface",
      "outputs": [
        {
          "internalType": "bool",
          "name": "",
          "type": "bool"
        }
      ],
      "stateMutability": "view",
      "type": "function"
    },
    {
      "inputs": [],
      "name": "symbol",
      "outputs": [
        {
          "internalType": "string",
          "name": "",
          "type": "string"
        }
      ],
      "stateMutability": "view",
      "type": "function"
    },
    {
      "inputs": [
        {
          "internalType": "uint256",
          "name": "_tokenId",
          "type": "uint256"
        }
      ],
      "name": "tokenURI",
      "outputs": [
        {
          "internalType": "string",
          "name": "",
          "type": "string"
        }
      ],
      "stateMutability": "view",
      "type": "function"
    },
    {
      "inputs": [
        {
          "internalType": "address",
          "name": "from",
          "type": "address"
        },
        {
          "internalType": "address",
          "name": "to",
          "type": "address"
        },
        {
          "internalType": "uint256",
          "name": "tokenId",
          "type": "uint256"
        }
      ],
      "name": "transferFrom",
      "outputs": [],
      "stateMutability": "nonpayable",
      "type": "function"
    }
  ],
  "bytecode": "0x60806040523480156200001157600080fd5b506040516200661f3803806200661f833981810160405281019062000037919062000e67565b6040518060400160405280600781526020017f506f6b656d6f6e000000000000000000000000000000000000000000000000008152506040518060400160405280600781526020017f504f4b454d4f4e000000000000000000000000000000000000000000000000008152508160009080519060200190620000bb92919062000aee565b508060019080519060200190620000d492919062000aee565b5050506040518061010001604052808260000151815260200182602001518152602001826040015181526020018260400151815260200182606001518152602001826080015181526020018260a0015181526020018260c00151815250600660008201518160000190805190602001906200015192919062000aee565b5060208201518160010190805190602001906200017092919062000aee565b5060408201518160020155606082015181600301556080820151816004015560a0820151816005015560c0820151816006019080519060200190620001b792919062000aee565b5060e08201518160070155905050620003266040518060600160405280602a8152602001620065f5602a913960066000018054620001f5906200126f565b80601f016020809104026020016040519081016040528092919081815260200182805462000223906200126f565b8015620002745780601f10620002485761010080835404028352916020019162000274565b820191906000526020600020905b8154815290600101906020018083116200025657829003601f168201915b50505050506006600201546006600101805462000291906200126f565b80601f0160208091040260200160405190810160405280929190818152602001828054620002bf906200126f565b8015620003105780601f10620002e45761010080835404028352916020019162000310565b820191906000526020600020905b815481529060010190602001808311620002f257829003601f168201915b50505050506200095a60201b6200241f1760201c565b60005b88518110156200093457600f6040518061012001604052808381526020018b848151811062000381577f4e487b7100000000000000000000000000000000000000000000000000000000600052603260045260246000fd5b602002602001015181526020018a8481518110620003c8577f4e487b7100000000000000000000000000000000000000000000000000000000600052603260045260246000fd5b602002602001015181526020018984815181106200040f577f4e487b7100000000000000000000000000000000000000000000000000000000600052603260045260246000fd5b6020026020010151815260200189848151811062000456577f4e487b7100000000000000000000000000000000000000000000000000000000600052603260045260246000fd5b602002602001015181526020018884815181106200049d577f4e487b7100000000000000000000000000000000000000000000000000000000600052603260045260246000fd5b60200260200101518152602001878481518110620004e4577f4e487b7100000000000000000000000000000000000000000000000000000000600052603260045260246000fd5b602002602001015181526020018684815181106200052b577f4e487b7100000000000000000000000000000000000000000000000000000000600052603260045260246000fd5b6020026020010151815260200185848151811062000572577f4e487b7100000000000000000000000000000000000000000000000000000000600052603260045260246000fd5b60200260200101518152509080600181540180825580915050600190039060005260206000209060090201600090919091909150600082015181600001556020820151816001019080519060200190620005ce92919062000aee565b506040820151816002019080519060200190620005ed92919062000aee565b50606082015181600301556080820151816004015560a0820151816005015560c0820151816006015560e08201518160070190805190602001906200063492919062000aee565b50610100820151816008015550506000600f82815481106200067f577f4e487b7100000000000000000000000000000000000000000000000000000000600052603260045260246000fd5b90600052602060002090600902016040518061012001604052908160008201548152602001600182018054620006b5906200126f565b80601f0160208091040260200160405190810160405280929190818152602001828054620006e3906200126f565b8015620007345780601f10620007085761010080835404028352916020019162000734565b820191906000526020600020905b8154815290600101906020018083116200071657829003601f168201915b505050505081526020016002820180546200074f906200126f565b80601f01602080910402602001604051908101604052809291908181526020018280546200077d906200126f565b8015620007ce5780601f10620007a257610100808354040283529160200191620007ce565b820191906000526020600020905b815481529060010190602001808311620007b057829003601f168201915b505050505081526020016003820154815260200160048201548152602001600582015481526020016006820154815260200160078201805462000811906200126f565b80601f01602080910402602001604051908101604052809291908181526020018280546200083f906200126f565b8015620008905780601f10620008645761010080835404028352916020019162000890565b820191906000526020600020905b8154815290600101906020018083116200087257829003601f168201915b505050505081526020016008820154815250509050620008e3604051806060016040528060258152602001620065d0602591398260200151836060015184604001516200095a60201b6200241f1760201c565b6200091c604051806060016040528060248152602001620065ac602491398260e001518360a0015162000a0660201b620024c11760201c565b506001816200092c9190620011d2565b905062000329565b506200094c600e62000aaf60201b620025601760201c565b50505050505050506200135d565b62000a00848484846040516024016200097794939291906200108f565b6040516020818303038152906040527f8d142cdd000000000000000000000000000000000000000000000000000000007bffffffffffffffffffffffffffffffffffffffffffffffffffffffff19166020820180517bffffffffffffffffffffffffffffffffffffffffffffffffffffffff838183161783525050505062000ac560201b60201c565b50505050565b62000aaa83838360405160240162000a219392919062001044565b6040516020818303038152906040527ff362ca59000000000000000000000000000000000000000000000000000000007bffffffffffffffffffffffffffffffffffffffffffffffffffffffff19166020820180517bffffffffffffffffffffffffffffffffffffffffffffffffffffffff838183161783525050505062000ac560201b60201c565b505050565b6001816000016000828254019250508190555050565b60008151905060006a636f6e736f6c652e6c6f679050602083016000808483855afa5050505050565b82805462000afc906200126f565b90600052602060002090601f01602090048101928262000b20576000855562000b6c565b82601f1062000b3b57805160ff191683800117855562000b6c565b8280016001018555821562000b6c579182015b8281111562000b6b57825182559160200191906001019062000b4e565b5b50905062000b7b919062000b7f565b5090565b5b8082111562000b9a57600081600090555060010162000b80565b5090565b600062000bb562000baf8462001125565b620010f1565b9050808382526020820190508260005b8581101562000bf9578151850162000bde888262000d17565b84526020840193506020830192505060018101905062000bc5565b5050509392505050565b600062000c1a62000c148462001154565b620010f1565b9050808382526020820190508285602086028201111562000c3a57600080fd5b60005b8581101562000c6e578162000c53888262000e50565b84526020840193506020830192505060018101905062000c3d565b5050509392505050565b600062000c8f62000c898462001183565b620010f1565b90508281526020810184848401111562000ca857600080fd5b62000cb584828562001239565b509392505050565b600082601f83011262000ccf57600080fd5b815162000ce184826020860162000b9e565b91505092915050565b600082601f83011262000cfc57600080fd5b815162000d0e84826020860162000c03565b91505092915050565b600082601f83011262000d2957600080fd5b815162000d3b84826020860162000c78565b91505092915050565b600060e0828403121562000d5757600080fd5b62000d6360e0620010f1565b9050600082015167ffffffffffffffff81111562000d8057600080fd5b62000d8e8482850162000d17565b600083015250602082015167ffffffffffffffff81111562000daf57600080fd5b62000dbd8482850162000d17565b602083015250604062000dd38482850162000e50565b604083015250606062000de98482850162000e50565b606083015250608062000dff8482850162000e50565b60808301525060a082015167ffffffffffffffff81111562000e2057600080fd5b62000e2e8482850162000d17565b60a08301525060c062000e448482850162000e50565b60c08301525092915050565b60008151905062000e618162001343565b92915050565b600080600080600080600080610100898b03121562000e8557600080fd5b600089015167ffffffffffffffff81111562000ea057600080fd5b62000eae8b828c0162000cbd565b985050602089015167ffffffffffffffff81111562000ecc57600080fd5b62000eda8b828c0162000cbd565b975050604089015167ffffffffffffffff81111562000ef857600080fd5b62000f068b828c0162000cea565b965050606089015167ffffffffffffffff81111562000f2457600080fd5b62000f328b828c0162000cea565b955050608089015167ffffffffffffffff81111562000f5057600080fd5b62000f5e8b828c0162000cea565b94505060a089015167ffffffffffffffff81111562000f7c57600080fd5b62000f8a8b828c0162000cbd565b93505060c089015167ffffffffffffffff81111562000fa857600080fd5b62000fb68b828c0162000cea565b92505060e089015167ffffffffffffffff81111562000fd457600080fd5b62000fe28b828c0162000d44565b9150509295985092959890939650565b600062000fff82620011b6565b6200100b8185620011c1565b93506200101d81856020860162001239565b620010288162001332565b840191505092915050565b6200103e816200122f565b82525050565b6000606082019050818103600083015262001060818662000ff2565b9050818103602083015262001076818562000ff2565b905062001087604083018462001033565b949350505050565b60006080820190508181036000830152620010ab818762000ff2565b90508181036020830152620010c1818662000ff2565b9050620010d2604083018562001033565b8181036060830152620010e6818462000ff2565b905095945050505050565b6000604051905081810181811067ffffffffffffffff821117156200111b576200111a62001303565b5b8060405250919050565b600067ffffffffffffffff82111562001143576200114262001303565b5b602082029050602081019050919050565b600067ffffffffffffffff82111562001172576200117162001303565b5b602082029050602081019050919050565b600067ffffffffffffffff821115620011a157620011a062001303565b5b601f19601f8301169050602081019050919050565b600081519050919050565b600082825260208201905092915050565b6000620011df826200122f565b9150620011ec836200122f565b9250827fffffffffffffffffffffffffffffffffffffffffffffffffffffffffffffffff03821115620012245762001223620012a5565b5b828201905092915050565b6000819050919050565b60005b83811015620012595780820151818401526020810190506200123c565b8381111562001269576000848401525b50505050565b600060028204905060018216806200128857607f821691505b602082108114156200129f576200129e620012d4565b5b50919050565b7f4e487b7100000000000000000000000000000000000000000000000000000000600052601160045260246000fd5b7f4e487b7100000000000000000000000000000000000000000000000000000000600052602260045260246000fd5b7f4e487b7100000000000000000000000000000000000000000000000000000000600052604160045260246000fd5b6000601f19601f8301169050919050565b6200134e816200122f565b81146200135a57600080fd5b50565b61523f806200136d6000396000f3fe608060405234801561001057600080fd5b506004361061014d5760003560e01c8063938bc829116100c3578063b953084e1161007c578063b953084e146103e5578063c87b56dd14610403578063c8cf27f414610433578063d4f24c5b14610451578063e985e9c51461045b578063f8b81ef71461048b5761014d565b8063938bc8291461030257806395d89b4114610332578063a22cb46514610350578063a9c326791461036c578063b260325a14610391578063b88d4fde146103c95761014d565b8063095ea7b311610115578063095ea7b31461021e57806323b872dd1461023a5780632f7467b31461025657806342842e0e146102865780636352211e146102a257806370a08231146102d25761014d565b806301ffc9a714610152578063023ad037146101825780630665f961146101b257806306fdde03146101d0578063081812fc146101ee575b600080fd5b61016c600480360381019061016791906137c4565b6104a7565b604051610179919061473f565b60405180910390f35b61019c6004803603810190610197919061361d565b610589565b6040516101a99190614b93565b60405180910390f35b6101ba6105a1565b6040516101c79190614b4f565b60405180910390f35b6101d86107a4565b6040516101e5919061475a565b60405180910390f35b61020860048036038101906102039190613816565b610836565b604051610215919061467f565b60405180910390f35b61023860048036038101906102339190613788565b6108bb565b005b610254600480360381019061024f9190613682565b6109d3565b005b610270600480360381019061026b9190613816565b610a33565b60405161027d919061467f565b60405180910390f35b6102a0600480360381019061029b9190613682565b610a66565b005b6102bc60048036038101906102b79190613816565b610a86565b6040516102c9919061467f565b60405180910390f35b6102ec60048036038101906102e7919061361d565b610b38565b6040516102f99190614b93565b60405180910390f35b61031c60048036038101906103179190613788565b610bf0565b6040516103299190614b93565b60405180910390f35b61033a610c21565b604051610347919061475a565b60405180910390f35b61036a6004803603810190610365919061374c565b610cb3565b005b610374610e34565b60405161038898979695949392919061486e565b60405180910390f35b6103ab60048036038101906103a69190613816565b611002565b6040516103c099989796959493929190614bae565b60405180910390f35b6103e360048036038101906103de91906136d1565b6111e8565b005b6103ed61124a565b6040516103fa919061471d565b60405180910390f35b61041d60048036038101906104189190613816565b61149c565b60405161042a919061475a565b60405180910390f35b61043b61178d565b6040516104489190614b71565b60405180910390f35b610459611a0c565b005b61047560048036038101906104709190613646565b611d97565b604051610482919061473f565b60405180910390f35b6104a560048036038101906104a09190613816565b611e2b565b005b60007f80ac58cd000000000000000000000000000000000000000000000000000000007bffffffffffffffffffffffffffffffffffffffffffffffffffffffff1916827bffffffffffffffffffffffffffffffffffffffffffffffffffffffff1916148061057257507f5b5e139f000000000000000000000000000000000000000000000000000000007bffffffffffffffffffffffffffffffffffffffffffffffffffffffff1916827bffffffffffffffffffffffffffffffffffffffffffffffffffffffff1916145b80610582575061058182612576565b5b9050919050565b60126020528060005260406000206000915090505481565b6105a9613418565b6006604051806101000160405290816000820180546105c790614f32565b80601f01602080910402602001604051908101604052809291908181526020018280546105f390614f32565b80156106405780601f1061061557610100808354040283529160200191610640565b820191906000526020600020905b81548152906001019060200180831161062357829003601f168201915b5050505050815260200160018201805461065990614f32565b80601f016020809104026020016040519081016040528092919081815260200182805461068590614f32565b80156106d25780601f106106a7576101008083540402835291602001916106d2565b820191906000526020600020905b8154815290600101906020018083116106b557829003601f168201915b505050505081526020016002820154815260200160038201548152602001600482015481526020016005820154815260200160068201805461071390614f32565b80601f016020809104026020016040519081016040528092919081815260200182805461073f90614f32565b801561078c5780601f106107615761010080835404028352916020019161078c565b820191906000526020600020905b81548152906001019060200180831161076f57829003601f168201915b50505050508152602001600782015481525050905090565b6060600080546107b390614f32565b80601f01602080910402602001604051908101604052809291908181526020018280546107df90614f32565b801561082c5780601f106108015761010080835404028352916020019161082c565b820191906000526020600020905b81548152906001019060200180831161080f57829003601f168201915b5050505050905090565b6000610841826125e0565b610880576040517f08c379a000000000000000000000000000000000000000000000000000000000815260040161087790614acf565b60405180910390fd5b6004600083815260200190815260200160002060009054906101000a900473ffffffffffffffffffffffffffffffffffffffff169050919050565b60006108c682610a86565b90508073ffffffffffffffffffffffffffffffffffffffff168373ffffffffffffffffffffffffffffffffffffffff161415610937576040517f08c379a000000000000000000000000000000000000000000000000000000000815260040161092e90614b0f565b60405180910390fd5b8073ffffffffffffffffffffffffffffffffffffffff1661095661264c565b73ffffffffffffffffffffffffffffffffffffffff16148061098557506109848161097f61264c565b611d97565b5b6109c4576040517f08c379a00000000000000000000000000000000000000000000000000000000081526004016109bb90614a2f565b60405180910390fd5b6109ce8383612654565b505050565b6109e46109de61264c565b8261270d565b610a23576040517f08c379a0000000000000000000000000000000000000000000000000000000008152600401610a1a90614b2f565b60405180910390fd5b610a2e8383836127eb565b505050565b60116020528060005260406000206000915054906101000a900473ffffffffffffffffffffffffffffffffffffffff1681565b610a81838383604051806020016040528060008152506111e8565b505050565b6000806002600084815260200190815260200160002060009054906101000a900473ffffffffffffffffffffffffffffffffffffffff169050600073ffffffffffffffffffffffffffffffffffffffff168173ffffffffffffffffffffffffffffffffffffffff161415610b2f576040517f08c379a0000000000000000000000000000000000000000000000000000000008152600401610b2690614a6f565b60405180910390fd5b80915050919050565b60008073ffffffffffffffffffffffffffffffffffffffff168273ffffffffffffffffffffffffffffffffffffffff161415610ba9576040517f08c379a0000000000000000000000000000000000000000000000000000000008152600401610ba090614a4f565b60405180910390fd5b600360008373ffffffffffffffffffffffffffffffffffffffff1673ffffffffffffffffffffffffffffffffffffffff168152602001908152602001600020549050919050565b60136020528160005260406000208181548110610c0c57600080fd5b90600052602060002001600091509150505481565b606060018054610c3090614f32565b80601f0160208091040260200160405190810160405280929190818152602001828054610c5c90614f32565b8015610ca95780601f10610c7e57610100808354040283529160200191610ca9565b820191906000526020600020905b815481529060010190602001808311610c8c57829003601f168201915b5050505050905090565b610cbb61264c565b73ffffffffffffffffffffffffffffffffffffffff168273ffffffffffffffffffffffffffffffffffffffff161415610d29576040517f08c379a0000000000000000000000000000000000000000000000000000000008152600401610d20906149cf565b60405180910390fd5b8060056000610d3661264c565b73ffffffffffffffffffffffffffffffffffffffff1673ffffffffffffffffffffffffffffffffffffffff16815260200190815260200160002060008473ffffffffffffffffffffffffffffffffffffffff1673ffffffffffffffffffffffffffffffffffffffff16815260200190815260200160002060006101000a81548160ff0219169083151502179055508173ffffffffffffffffffffffffffffffffffffffff16610de361264c565b73ffffffffffffffffffffffffffffffffffffffff167f17307eab39ab6107e8899845ad3d59bd9653f200f220920489ca2b5937696c3183604051610e28919061473f565b60405180910390a35050565b6006806000018054610e4590614f32565b80601f0160208091040260200160405190810160405280929190818152602001828054610e7190614f32565b8015610ebe5780601f10610e9357610100808354040283529160200191610ebe565b820191906000526020600020905b815481529060010190602001808311610ea157829003601f168201915b505050505090806001018054610ed390614f32565b80601f0160208091040260200160405190810160405280929190818152602001828054610eff90614f32565b8015610f4c5780601f10610f2157610100808354040283529160200191610f4c565b820191906000526020600020905b815481529060010190602001808311610f2f57829003601f168201915b505050505090806002015490806003015490806004015490806005015490806006018054610f7990614f32565b80601f0160208091040260200160405190810160405280929190818152602001828054610fa590614f32565b8015610ff25780601f10610fc757610100808354040283529160200191610ff2565b820191906000526020600020905b815481529060010190602001808311610fd557829003601f168201915b5050505050908060070154905088565b601060205280600052604060002060009150905080600001549080600101805461102b90614f32565b80601f016020809104026020016040519081016040528092919081815260200182805461105790614f32565b80156110a45780601f10611079576101008083540402835291602001916110a4565b820191906000526020600020905b81548152906001019060200180831161108757829003601f168201915b5050505050908060020180546110b990614f32565b80601f01602080910402602001604051908101604052809291908181526020018280546110e590614f32565b80156111325780601f1061110757610100808354040283529160200191611132565b820191906000526020600020905b81548152906001019060200180831161111557829003601f168201915b50505050509080600301549080600401549080600501549080600601549080600701805461115f90614f32565b80601f016020809104026020016040519081016040528092919081815260200182805461118b90614f32565b80156111d85780601f106111ad576101008083540402835291602001916111d8565b820191906000526020600020905b8154815290600101906020018083116111bb57829003601f168201915b5050505050908060080154905089565b6111f96111f361264c565b8361270d565b611238576040517f08c379a000000000000000000000000000000000000000000000000000000000815260040161122f90614b2f565b60405180910390fd5b61124484848484612a47565b50505050565b6060600f805480602002602001604051908101604052809291908181526020016000905b82821015611493578382906000526020600020906009020160405180610120016040529081600082015481526020016001820180546112ac90614f32565b80601f01602080910402602001604051908101604052809291908181526020018280546112d890614f32565b80156113255780601f106112fa57610100808354040283529160200191611325565b820191906000526020600020905b81548152906001019060200180831161130857829003601f168201915b5050505050815260200160028201805461133e90614f32565b80601f016020809104026020016040519081016040528092919081815260200182805461136a90614f32565b80156113b75780601f1061138c576101008083540402835291602001916113b7565b820191906000526020600020905b81548152906001019060200180831161139a57829003601f168201915b50505050508152602001600382015481526020016004820154815260200160058201548152602001600682015481526020016007820180546113f890614f32565b80601f016020809104026020016040519081016040528092919081815260200182805461142490614f32565b80156114715780601f1061144657610100808354040283529160200191611471565b820191906000526020600020905b81548152906001019060200180831161145457829003601f168201915b505050505081526020016008820154815250508152602001906001019061126e565b50505050905090565b606060006010600084815260200190815260200160002060405180610120016040529081600082015481526020016001820180546114d990614f32565b80601f016020809104026020016040519081016040528092919081815260200182805461150590614f32565b80156115525780601f1061152757610100808354040283529160200191611552565b820191906000526020600020905b81548152906001019060200180831161153557829003601f168201915b5050505050815260200160028201805461156b90614f32565b80601f016020809104026020016040519081016040528092919081815260200182805461159790614f32565b80156115e45780601f106115b9576101008083540402835291602001916115e4565b820191906000526020600020905b8154815290600101906020018083116115c757829003601f168201915b505050505081526020016003820154815260200160048201548152602001600582015481526020016006820154815260200160078201805461162590614f32565b80601f016020809104026020016040519081016040528092919081815260200182805461165190614f32565b801561169e5780601f106116735761010080835404028352916020019161169e565b820191906000526020600020905b81548152906001019060200180831161168157829003601f168201915b50505050508152602001600882015481525050905060006116c28260600151612aa3565b905060006116d38360800151612aa3565b905060006116e48460a00151612aa3565b905060006116f58560c00151612aa3565b90506000611707866101000151612aa3565b90506000611757876020015161171c8b612aa3565b8960400151898989898e60e001518a60405160200161174399989796959493929190614570565b604051602081830303815290604052612c50565b905060008160405160200161176c919061465d565b60405160208183030381529060405290508098505050505050505050919050565b61179561345d565b6000601260003373ffffffffffffffffffffffffffffffffffffffff1673ffffffffffffffffffffffffffffffffffffffff16815260200190815260200160002054905060008111156119fb5760106000828152602001908152602001600020604051806101200160405290816000820154815260200160018201805461181b90614f32565b80601f016020809104026020016040519081016040528092919081815260200182805461184790614f32565b80156118945780601f1061186957610100808354040283529160200191611894565b820191906000526020600020905b81548152906001019060200180831161187757829003601f168201915b505050505081526020016002820180546118ad90614f32565b80601f01602080910402602001604051908101604052809291908181526020018280546118d990614f32565b80156119265780601f106118fb57610100808354040283529160200191611926565b820191906000526020600020905b81548152906001019060200180831161190957829003601f168201915b505050505081526020016003820154815260200160048201548152602001600582015481526020016006820154815260200160078201805461196790614f32565b80601f016020809104026020016040519081016040528092919081815260200182805461199390614f32565b80156119e05780601f106119b5576101008083540402835291602001916119e0565b820191906000526020600020905b8154815290600101906020018083116119c357829003601f168201915b50505050508152602001600882015481525050915050611a09565b611a0361345d565b80925050505b90565b6000601260003373ffffffffffffffffffffffffffffffffffffffff1673ffffffffffffffffffffffffffffffffffffffff1681526020019081526020016000205490506000601060008381526020019081526020016000209050611b1f6040518060600160405280603c815260200161519b603c9139826001018054611a9290614f32565b80601f0160208091040260200160405190810160405280929190818152602001828054611abe90614f32565b8015611b0b5780601f10611ae057610100808354040283529160200191611b0b565b820191906000526020600020905b815481529060010190602001808311611aee57829003601f168201915b505050505083600301548460050154612e0e565b611bf76040518060400160405280601b81526020017f426f73732025732068617320257320485020616e64202573204144000000000081525060066000018054611b6890614f32565b80601f0160208091040260200160405190810160405280929190818152602001828054611b9490614f32565b8015611be15780601f10611bb657610100808354040283529160200191611be1565b820191906000526020600020905b815481529060010190602001808311611bc457829003601f168201915b5050505050600660020154600660040154612e0e565b6000816003015411611c3e576040517f08c379a0000000000000000000000000000000000000000000000000000000008152600401611c3590614a0f565b60405180910390fd5b600060066002015411611c86576040517f08c379a0000000000000000000000000000000000000000000000000000000008152600401611c7d90614a8f565b60405180910390fd5b80600501546006600201541015611ca7576000600660020181905550611cc6565b8060050154600660020154611cbc9190614e48565b6006600201819055505b60066004015481600301541015611ce65760008160030181905550611d04565b6006600401548160030154611cfb9190614e48565b81600301819055505b611d2b60405180606001604052806025815260200161510860259139600660020154612eb0565b611d516040518060600160405280603381526020016151d7603391398260030154612eb0565b7f838ab28464562786a6c4ab2311964b82fa60bd9b14aa7e856af1f3f18d41a4146006600201548260030154604051611d8b929190614c50565b60405180910390a15050565b6000600560008473ffffffffffffffffffffffffffffffffffffffff1673ffffffffffffffffffffffffffffffffffffffff16815260200190815260200160002060008373ffffffffffffffffffffffffffffffffffffffff1673ffffffffffffffffffffffffffffffffffffffff16815260200190815260200160002060009054906101000a900460ff16905092915050565b6000611e37600e612f4c565b9050611e433382612f5a565b604051806101200160405280838152602001600f8481548110611e8f577f4e487b7100000000000000000000000000000000000000000000000000000000600052603260045260246000fd5b90600052602060002090600902016001018054611eab90614f32565b80601f0160208091040260200160405190810160405280929190818152602001828054611ed790614f32565b8015611f245780601f10611ef957610100808354040283529160200191611f24565b820191906000526020600020905b815481529060010190602001808311611f0757829003601f168201915b50505050508152602001600f8481548110611f68577f4e487b7100000000000000000000000000000000000000000000000000000000600052603260045260246000fd5b90600052602060002090600902016002018054611f8490614f32565b80601f0160208091040260200160405190810160405280929190818152602001828054611fb090614f32565b8015611ffd5780601f10611fd257610100808354040283529160200191611ffd565b820191906000526020600020905b815481529060010190602001808311611fe057829003601f168201915b50505050508152602001600f8481548110612041577f4e487b7100000000000000000000000000000000000000000000000000000000600052603260045260246000fd5b9060005260206000209060090201600301548152602001600f8481548110612092577f4e487b7100000000000000000000000000000000000000000000000000000000600052603260045260246000fd5b9060005260206000209060090201600301548152602001600f84815481106120e3577f4e487b7100000000000000000000000000000000000000000000000000000000600052603260045260246000fd5b9060005260206000209060090201600501548152602001600f8481548110612134577f4e487b7100000000000000000000000000000000000000000000000000000000600052603260045260246000fd5b9060005260206000209060090201600601548152602001600f8481548110612185577f4e487b7100000000000000000000000000000000000000000000000000000000600052603260045260246000fd5b906000526020600020906009020160070180546121a190614f32565b80601f01602080910402602001604051908101604052809291908181526020018280546121cd90614f32565b801561221a5780601f106121ef5761010080835404028352916020019161221a565b820191906000526020600020905b8154815290600101906020018083116121fd57829003601f168201915b50505050508152602001600f848154811061225e577f4e487b7100000000000000000000000000000000000000000000000000000000600052603260045260246000fd5b906000526020600020906009020160080154815250601060008381526020019081526020016000206000820151816000015560208201518160010190805190602001906122ac9291906134a9565b5060408201518160020190805190602001906122c99291906134a9565b50606082015181600301556080820151816004015560a0820151816005015560c0820151816006015560e082015181600701908051906020019061230e9291906134a9565b5061010082015181600801559050506123406040518060600160405280602e815260200161516d602e91398284612f78565b336011600083815260200190815260200160002060006101000a81548173ffffffffffffffffffffffffffffffffffffffff021916908373ffffffffffffffffffffffffffffffffffffffff16021790555080601260003373ffffffffffffffffffffffffffffffffffffffff1673ffffffffffffffffffffffffffffffffffffffff168152602001908152602001600020819055506123e0600e612560565b7f4bc303fd457a97b4691b9af582ce71868a3d258638c8d4f8c60988a0f0bfb8cd338284604051612413939291906146e6565b60405180910390a15050565b6124bb8484848460405160240161243994939291906147c1565b6040516020818303038152906040527f8d142cdd000000000000000000000000000000000000000000000000000000007bffffffffffffffffffffffffffffffffffffffffffffffffffffffff19166020820180517bffffffffffffffffffffffffffffffffffffffffffffffffffffffff8381831617835250505050613017565b50505050565b61255b8383836040516024016124d99392919061477c565b6040516020818303038152906040527ff362ca59000000000000000000000000000000000000000000000000000000007bffffffffffffffffffffffffffffffffffffffffffffffffffffffff19166020820180517bffffffffffffffffffffffffffffffffffffffffffffffffffffffff8381831617835250505050613017565b505050565b6001816000016000828254019250508190555050565b60007f01ffc9a7000000000000000000000000000000000000000000000000000000007bffffffffffffffffffffffffffffffffffffffffffffffffffffffff1916827bffffffffffffffffffffffffffffffffffffffffffffffffffffffff1916149050919050565b60008073ffffffffffffffffffffffffffffffffffffffff166002600084815260200190815260200160002060009054906101000a900473ffffffffffffffffffffffffffffffffffffffff1673ffffffffffffffffffffffffffffffffffffffff1614159050919050565b600033905090565b816004600083815260200190815260200160002060006101000a81548173ffffffffffffffffffffffffffffffffffffffff021916908373ffffffffffffffffffffffffffffffffffffffff160217905550808273ffffffffffffffffffffffffffffffffffffffff166126c783610a86565b73ffffffffffffffffffffffffffffffffffffffff167f8c5be1e5ebec7d5bd14f71427d1e84f3dd0314c0f7b2291e5b200ac8c7c3b92560405160405180910390a45050565b6000612718826125e0565b612757576040517f08c379a000000000000000000000000000000000000000000000000000000000815260040161274e906149ef565b60405180910390fd5b600061276283610a86565b90508073ffffffffffffffffffffffffffffffffffffffff168473ffffffffffffffffffffffffffffffffffffffff1614806127d157508373ffffffffffffffffffffffffffffffffffffffff166127b984610836565b73ffffffffffffffffffffffffffffffffffffffff16145b806127e257506127e18185611d97565b5b91505092915050565b8273ffffffffffffffffffffffffffffffffffffffff1661280b82610a86565b73ffffffffffffffffffffffffffffffffffffffff1614612861576040517f08c379a000000000000000000000000000000000000000000000000000000000815260040161285890614aef565b60405180910390fd5b600073ffffffffffffffffffffffffffffffffffffffff168273ffffffffffffffffffffffffffffffffffffffff1614156128d1576040517f08c379a00000000000000000000000000000000000000000000000000000000081526004016128c8906149af565b60405180910390fd5b6128dc838383613040565b6128e7600082612654565b6001600360008573ffffffffffffffffffffffffffffffffffffffff1673ffffffffffffffffffffffffffffffffffffffff16815260200190815260200160002060008282546129379190614e48565b925050819055506001600360008473ffffffffffffffffffffffffffffffffffffffff1673ffffffffffffffffffffffffffffffffffffffff168152602001908152602001600020600082825461298e9190614d67565b92505081905550816002600083815260200190815260200160002060006101000a81548173ffffffffffffffffffffffffffffffffffffffff021916908373ffffffffffffffffffffffffffffffffffffffff160217905550808273ffffffffffffffffffffffffffffffffffffffff168473ffffffffffffffffffffffffffffffffffffffff167fddf252ad1be2c89b69c2b068fc378daa952ba7f163c4a11628f55a4df523b3ef60405160405180910390a4505050565b612a528484846127eb565b612a5e84848484613045565b612a9d576040517f08c379a0000000000000000000000000000000000000000000000000000000008152600401612a949061496f565b60405180910390fd5b50505050565b60606000821415612aeb576040518060400160405280600181526020017f30000000000000000000000000000000000000000000000000000000000000008152509050612c4b565b600082905060005b60008214612b1d578080612b0690614f64565b915050600a82612b169190614dbd565b9150612af3565b60008167ffffffffffffffff811115612b5f577f4e487b7100000000000000000000000000000000000000000000000000000000600052604160045260246000fd5b6040519080825280601f01601f191660200182016040528015612b915781602001600182028036833780820191505090505b5090505b60008514612c4457600182612baa9190614e48565b9150600a85612bb99190614fad565b6030612bc59190614d67565b60f81b818381518110612c01577f4e487b7100000000000000000000000000000000000000000000000000000000600052603260045260246000fd5b60200101907effffffffffffffffffffffffffffffffffffffffffffffffffffffffffffff1916908160001a905350600a85612c3d9190614dbd565b9450612b95565b8093505050505b919050565b60606000825190506000811415612c795760405180602001604052806000815250915050612e09565b60006003600283612c8a9190614d67565b612c949190614dbd565b6004612ca09190614dee565b90506000602082612cb19190614d67565b67ffffffffffffffff811115612cf0577f4e487b7100000000000000000000000000000000000000000000000000000000600052604160045260246000fd5b6040519080825280601f01601f191660200182016040528015612d225781602001600182028036833780820191505090505b509050600060405180606001604052806040815260200161512d604091399050600181016020830160005b86811015612dc65760038101905062ffffff818a015116603f8160121c168401518060081b905060ff603f83600c1c1686015116810190508060081b905060ff603f8360061c1686015116810190508060081b905060ff603f831686015116810190508060e01b90508084526004840193505050612d4d565b506003860660018114612de05760028114612df057612dfb565b613d3d60f01b6002830352612dfb565b603d60f81b60018303525b508484525050819450505050505b919050565b612eaa84848484604051602401612e28949392919061481b565b6040516020818303038152906040527fd5cf17d0000000000000000000000000000000000000000000000000000000007bffffffffffffffffffffffffffffffffffffffffffffffffffffffff19166020820180517bffffffffffffffffffffffffffffffffffffffffffffffffffffffff8381831617835250505050613017565b50505050565b612f488282604051602401612ec6929190614901565b6040516020818303038152906040527f9710a9d0000000000000000000000000000000000000000000000000000000007bffffffffffffffffffffffffffffffffffffffffffffffffffffffff19166020820180517bffffffffffffffffffffffffffffffffffffffffffffffffffffffff8381831617835250505050613017565b5050565b600081600001549050919050565b612f748282604051806020016040528060008152506131dc565b5050565b613012838383604051602401612f9093929190614931565b6040516020818303038152906040527f969cdd03000000000000000000000000000000000000000000000000000000007bffffffffffffffffffffffffffffffffffffffffffffffffffffffff19166020820180517bffffffffffffffffffffffffffffffffffffffffffffffffffffffff8381831617835250505050613017565b505050565b60008151905060006a636f6e736f6c652e6c6f679050602083016000808483855afa5050505050565b505050565b60006130668473ffffffffffffffffffffffffffffffffffffffff16613237565b156131cf578373ffffffffffffffffffffffffffffffffffffffff1663150b7a0261308f61264c565b8786866040518563ffffffff1660e01b81526004016130b1949392919061469a565b602060405180830381600087803b1580156130cb57600080fd5b505af19250505080156130fc57506040513d601f19601f820116820180604052508101906130f991906137ed565b60015b61317f573d806000811461312c576040519150601f19603f3d011682016040523d82523d6000602084013e613131565b606091505b50600081511415613177576040517f08c379a000000000000000000000000000000000000000000000000000000000815260040161316e9061496f565b60405180910390fd5b805181602001fd5b63150b7a0260e01b7bffffffffffffffffffffffffffffffffffffffffffffffffffffffff1916817bffffffffffffffffffffffffffffffffffffffffffffffffffffffff1916149150506131d4565b600190505b949350505050565b6131e6838361324a565b6131f36000848484613045565b613232576040517f08c379a00000000000000000000000000000000000000000000000000000000081526004016132299061496f565b60405180910390fd5b505050565b600080823b905060008111915050919050565b600073ffffffffffffffffffffffffffffffffffffffff168273ffffffffffffffffffffffffffffffffffffffff1614156132ba576040517f08c379a00000000000000000000000000000000000000000000000000000000081526004016132b190614aaf565b60405180910390fd5b6132c3816125e0565b15613303576040517f08c379a00000000000000000000000000000000000000000000000000000000081526004016132fa9061498f565b60405180910390fd5b61330f60008383613040565b6001600360008473ffffffffffffffffffffffffffffffffffffffff1673ffffffffffffffffffffffffffffffffffffffff168152602001908152602001600020600082825461335f9190614d67565b92505081905550816002600083815260200190815260200160002060006101000a81548173ffffffffffffffffffffffffffffffffffffffff021916908373ffffffffffffffffffffffffffffffffffffffff160217905550808273ffffffffffffffffffffffffffffffffffffffff16600073ffffffffffffffffffffffffffffffffffffffff167fddf252ad1be2c89b69c2b068fc378daa952ba7f163c4a11628f55a4df523b3ef60405160405180910390a45050565b60405180610100016040528060608152602001606081526020016000815260200160008152602001600081526020016000815260200160608152602001600081525090565b6040518061012001604052806000815260200160608152602001606081526020016000815260200160008152602001600081526020016000815260200160608152602001600081525090565b8280546134b590614f32565b90600052602060002090601f0160209004810192826134d7576000855561351e565b82601f106134f057805160ff191683800117855561351e565b8280016001018555821561351e579182015b8281111561351d578251825591602001919060010190613502565b5b50905061352b919061352f565b5090565b5b80821115613548576000816000905550600101613530565b5090565b600061355f61355a84614caa565b614c79565b90508281526020810184848401111561357757600080fd5b613582848285614ef0565b509392505050565b600081359050613599816150ab565b92915050565b6000813590506135ae816150c2565b92915050565b6000813590506135c3816150d9565b92915050565b6000815190506135d8816150d9565b92915050565b600082601f8301126135ef57600080fd5b81356135ff84826020860161354c565b91505092915050565b600081359050613617816150f0565b92915050565b60006020828403121561362f57600080fd5b600061363d8482850161358a565b91505092915050565b6000806040838503121561365957600080fd5b60006136678582860161358a565b92505060206136788582860161358a565b9150509250929050565b60008060006060848603121561369757600080fd5b60006136a58682870161358a565b93505060206136b68682870161358a565b92505060406136c786828701613608565b9150509250925092565b600080600080608085870312156136e757600080fd5b60006136f58782880161358a565b94505060206137068782880161358a565b935050604061371787828801613608565b925050606085013567ffffffffffffffff81111561373457600080fd5b613740878288016135de565b91505092959194509250565b6000806040838503121561375f57600080fd5b600061376d8582860161358a565b925050602061377e8582860161359f565b9150509250929050565b6000806040838503121561379b57600080fd5b60006137a98582860161358a565b92505060206137ba85828601613608565b9150509250929050565b6000602082840312156137d657600080fd5b60006137e4848285016135b4565b91505092915050565b6000602082840312156137ff57600080fd5b600061380d848285016135c9565b91505092915050565b60006020828403121561382857600080fd5b600061383684828501613608565b91505092915050565b600061384b83836143ac565b905092915050565b61385c81614e7c565b82525050565b600061386d82614cea565b6138778185614d18565b93508360208202850161388985614cda565b8060005b858110156138c557848403895281516138a6858261383f565b94506138b183614d0b565b925060208a0199505060018101905061388d565b50829750879550505050505092915050565b6138e081614e8e565b82525050565b60006138f182614cf5565b6138fb8185614d29565b935061390b818560208601614eff565b6139148161509a565b840191505092915050565b600061392a82614d00565b6139348185614d3a565b9350613944818560208601614eff565b61394d8161509a565b840191505092915050565b600061396382614d00565b61396d8185614d4b565b935061397d818560208601614eff565b6139868161509a565b840191505092915050565b600061399c82614d00565b6139a68185614d5c565b93506139b6818560208601614eff565b80840191505092915050565b60006139cf600b83614d5c565b91507f202d2d204e465420233a200000000000000000000000000000000000000000006000830152600b82019050919050565b6000613a0f603283614d4b565b91507f4552433732313a207472616e7366657220746f206e6f6e20455243373231526560008301527f63656976657220696d706c656d656e74657200000000000000000000000000006020830152604082019050919050565b6000613a75601c83614d4b565b91507f4552433732313a20746f6b656e20616c7265616479206d696e746564000000006000830152602082019050919050565b6000613ab5600e83614d5c565b91507f2c20226d61785f76616c7565223a0000000000000000000000000000000000006000830152600e82019050919050565b6000613af5602483614d4b565b91507f4552433732313a207472616e7366657220746f20746865207a65726f2061646460008301527f72657373000000000000000000000000000000000000000000000000000000006020830152604082019050919050565b6000613b5b601983614d4b565b91507f4552433732313a20617070726f766520746f2063616c6c6572000000000000006000830152602082019050919050565b6000613b9b602c83614d4b565b91507f4552433732313a206f70657261746f7220717565727920666f72206e6f6e657860008301527f697374656e7420746f6b656e00000000000000000000000000000000000000006020830152604082019050919050565b6000613c01601b83614d4b565b91507f4572726f723a20706f6b656d6f6e206973206f7574206f6620485000000000006000830152602082019050919050565b6000613c41603883614d4b565b91507f4552433732313a20617070726f76652063616c6c6572206973206e6f74206f7760008301527f6e6572206e6f7220617070726f76656420666f7220616c6c00000000000000006020830152604082019050919050565b6000613ca7602a83614d4b565b91507f4552433732313a2062616c616e636520717565727920666f7220746865207a6560008301527f726f2061646472657373000000000000000000000000000000000000000000006020830152604082019050919050565b6000613d0d602a83614d5c565b91507f7d2c207b202274726169745f74797065223a20224d6f7665204e616d65222c2060008301527f2276616c7565223a2022000000000000000000000000000000000000000000006020830152602a82019050919050565b6000613d73602983614d4b565b91507f4552433732313a206f776e657220717565727920666f72206e6f6e657869737460008301527f656e7420746f6b656e00000000000000000000000000000000000000000000006020830152604082019050919050565b6000613dd9601a83614d4b565b91507f4572726f723a204d657774776f206973206f7574206f662048500000000000006000830152602082019050919050565b6000613e19602083614d4b565b91507f4552433732313a206d696e7420746f20746865207a65726f20616464726573736000830152602082019050919050565b6000613e59600383614d5c565b91507f7d5d7d00000000000000000000000000000000000000000000000000000000006000830152600382019050919050565b6000613e99602c83614d4b565b91507f4552433732313a20617070726f76656420717565727920666f72206e6f6e657860008301527f697374656e7420746f6b656e00000000000000000000000000000000000000006020830152604082019050919050565b6000613eff603083614d5c565b91507f227d2c207b202274726169745f74797065223a2022437269746963616c20436860008301527f616e6365222c202276616c7565223a20000000000000000000000000000000006020830152603082019050919050565b6000613f65602983614d4b565b91507f4552433732313a207472616e73666572206f6620746f6b656e2074686174206960008301527f73206e6f74206f776e00000000000000000000000000000000000000000000006020830152604082019050919050565b6000613fcb600a83614d5c565b91507f7b226e616d65223a2022000000000000000000000000000000000000000000006000830152600a82019050919050565b600061400b602183614d4b565b91507f4552433732313a20617070726f76616c20746f2063757272656e74206f776e6560008301527f72000000000000000000000000000000000000000000000000000000000000006020830152604082019050919050565b6000614071601d83614d5c565b91507f646174613a6170706c69636174696f6e2f6a736f6e3b6261736536342c0000006000830152601d82019050919050565b60006140b1603183614d4b565b91507f4552433732313a207472616e736665722063616c6c6572206973206e6f74206f60008301527f776e6572206e6f7220617070726f7665640000000000000000000000000000006020830152604082019050919050565b6000614117606c83614d5c565b91507f222c20226465736372697074696f6e223a20225468697320697320616e204e4660008301527f542074686174206c6574732070656f706c6520706c617920696e20746865206760208301527f616d6520506f6b656d6f6e3a20526576656e6765206f66204d657774776f212260408301527f2c2022696d616765223a202200000000000000000000000000000000000000006060830152606c82019050919050565b60006141c9603d83614d5c565b91507f222c202261747472696275746573223a205b207b202274726169745f7479706560008301527f223a20224865616c746820506f696e7473222c202276616c7565223a200000006020830152603d82019050919050565b600061422f602d83614d5c565b91507f7d2c207b202274726169745f74797065223a202241747461636b2044616d616760008301527f65222c202276616c7565223a20000000000000000000000000000000000000006020830152602d82019050919050565b6000614295602783614d5c565b91507f7d2c207b202274726169745f74797065223a2022446566656e7365222c20227660008301527f616c7565223a20000000000000000000000000000000000000000000000000006020830152602782019050919050565b600061010083016000830151848203600086015261430c828261391f565b91505060208301518482036020860152614326828261391f565b915050604083015161433b6040860182614552565b50606083015161434e6060860182614552565b5060808301516143616080860182614552565b5060a083015161437460a0860182614552565b5060c083015184820360c086015261438c828261391f565b91505060e08301516143a160e0860182614552565b508091505092915050565b6000610120830160008301516143c56000860182614552565b50602083015184820360208601526143dd828261391f565b915050604083015184820360408601526143f7828261391f565b915050606083015161440c6060860182614552565b50608083015161441f6080860182614552565b5060a083015161443260a0860182614552565b5060c083015161444560c0860182614552565b5060e083015184820360e086015261445d828261391f565b915050610100830151614474610100860182614552565b508091505092915050565b6000610120830160008301516144986000860182614552565b50602083015184820360208601526144b0828261391f565b915050604083015184820360408601526144ca828261391f565b91505060608301516144df6060860182614552565b5060808301516144f26080860182614552565b5060a083015161450560a0860182614552565b5060c083015161451860c0860182614552565b5060e083015184820360e0860152614530828261391f565b915050610100830151614547610100860182614552565b508091505092915050565b61455b81614ee6565b82525050565b61456a81614ee6565b82525050565b600061457b82613fbe565b9150614587828c613991565b9150614592826139c2565b915061459e828b613991565b91506145a98261410a565b91506145b5828a613991565b91506145c0826141bc565b91506145cc8289613991565b91506145d782613aa8565b91506145e38288613991565b91506145ee82614222565b91506145fa8287613991565b915061460582614288565b91506146118286613991565b915061461c82613d00565b91506146288285613991565b915061463382613ef2565b915061463f8284613991565b915061464a82613e4c565b91508190509a9950505050505050505050565b600061466882614064565b91506146748284613991565b915081905092915050565b60006020820190506146946000830184613853565b92915050565b60006080820190506146af6000830187613853565b6146bc6020830186613853565b6146c96040830185614561565b81810360608301526146db81846138e6565b905095945050505050565b60006060820190506146fb6000830186613853565b6147086020830185614561565b6147156040830184614561565b949350505050565b600060208201905081810360008301526147378184613862565b905092915050565b600060208201905061475460008301846138d7565b92915050565b600060208201905081810360008301526147748184613958565b905092915050565b600060608201905081810360008301526147968186613958565b905081810360208301526147aa8185613958565b90506147b96040830184614561565b949350505050565b600060808201905081810360008301526147db8187613958565b905081810360208301526147ef8186613958565b90506147fe6040830185614561565b81810360608301526148108184613958565b905095945050505050565b600060808201905081810360008301526148358187613958565b905081810360208301526148498186613958565b90506148586040830185614561565b6148656060830184614561565b95945050505050565b6000610100820190508181036000830152614889818b613958565b9050818103602083015261489d818a613958565b90506148ac6040830189614561565b6148b96060830188614561565b6148c66080830187614561565b6148d360a0830186614561565b81810360c08301526148e58185613958565b90506148f460e0830184614561565b9998505050505050505050565b6000604082019050818103600083015261491b8185613958565b905061492a6020830184614561565b9392505050565b6000606082019050818103600083015261494b8186613958565b905061495a6020830185614561565b6149676040830184614561565b949350505050565b6000602082019050818103600083015261498881613a02565b9050919050565b600060208201905081810360008301526149a881613a68565b9050919050565b600060208201905081810360008301526149c881613ae8565b9050919050565b600060208201905081810360008301526149e881613b4e565b9050919050565b60006020820190508181036000830152614a0881613b8e565b9050919050565b60006020820190508181036000830152614a2881613bf4565b9050919050565b60006020820190508181036000830152614a4881613c34565b9050919050565b60006020820190508181036000830152614a6881613c9a565b9050919050565b60006020820190508181036000830152614a8881613d66565b9050919050565b60006020820190508181036000830152614aa881613dcc565b9050919050565b60006020820190508181036000830152614ac881613e0c565b9050919050565b60006020820190508181036000830152614ae881613e8c565b9050919050565b60006020820190508181036000830152614b0881613f58565b9050919050565b60006020820190508181036000830152614b2881613ffe565b9050919050565b60006020820190508181036000830152614b48816140a4565b9050919050565b60006020820190508181036000830152614b6981846142ee565b905092915050565b60006020820190508181036000830152614b8b818461447f565b905092915050565b6000602082019050614ba86000830184614561565b92915050565b600061012082019050614bc4600083018c614561565b8181036020830152614bd6818b613958565b90508181036040830152614bea818a613958565b9050614bf96060830189614561565b614c066080830188614561565b614c1360a0830187614561565b614c2060c0830186614561565b81810360e0830152614c328185613958565b9050614c42610100830184614561565b9a9950505050505050505050565b6000604082019050614c656000830185614561565b614c726020830184614561565b9392505050565b6000604051905081810181811067ffffffffffffffff82111715614ca057614c9f61506b565b5b8060405250919050565b600067ffffffffffffffff821115614cc557614cc461506b565b5b601f19601f8301169050602081019050919050565b6000819050602082019050919050565b600081519050919050565b600081519050919050565b600081519050919050565b6000602082019050919050565b600082825260208201905092915050565b600082825260208201905092915050565b600082825260208201905092915050565b600082825260208201905092915050565b600081905092915050565b6000614d7282614ee6565b9150614d7d83614ee6565b9250827fffffffffffffffffffffffffffffffffffffffffffffffffffffffffffffffff03821115614db257614db1614fde565b5b828201905092915050565b6000614dc882614ee6565b9150614dd383614ee6565b925082614de357614de261500d565b5b828204905092915050565b6000614df982614ee6565b9150614e0483614ee6565b9250817fffffffffffffffffffffffffffffffffffffffffffffffffffffffffffffffff0483118215151615614e3d57614e3c614fde565b5b828202905092915050565b6000614e5382614ee6565b9150614e5e83614ee6565b925082821015614e7157614e70614fde565b5b828203905092915050565b6000614e8782614ec6565b9050919050565b60008115159050919050565b60007fffffffff0000000000000000000000000000000000000000000000000000000082169050919050565b600073ffffffffffffffffffffffffffffffffffffffff82169050919050565b6000819050919050565b82818337600083830152505050565b60005b83811015614f1d578082015181840152602081019050614f02565b83811115614f2c576000848401525b50505050565b60006002820490506001821680614f4a57607f821691505b60208210811415614f5e57614f5d61503c565b5b50919050565b6000614f6f82614ee6565b91507fffffffffffffffffffffffffffffffffffffffffffffffffffffffffffffffff821415614fa257614fa1614fde565b5b600182019050919050565b6000614fb882614ee6565b9150614fc383614ee6565b925082614fd357614fd261500d565b5b828206905092915050565b7f4e487b7100000000000000000000000000000000000000000000000000000000600052601160045260246000fd5b7f4e487b7100000000000000000000000000000000000000000000000000000000600052601260045260246000fd5b7f4e487b7100000000000000000000000000000000000000000000000000000000600052602260045260246000fd5b7f4e487b7100000000000000000000000000000000000000000000000000000000600052604160045260246000fd5b6000601f19601f8301169050919050565b6150b481614e7c565b81146150bf57600080fd5b50565b6150cb81614e8e565b81146150d657600080fd5b50565b6150e281614e9a565b81146150ed57600080fd5b50565b6150f981614ee6565b811461510457600080fd5b5056fe506c617965722061747461636b656420626f73732e204e657720626f73732068703a2025734142434445464748494a4b4c4d4e4f505152535455565758595a6162636465666768696a6b6c6d6e6f707172737475767778797a303132333435363738392b2f4d696e746564204e465420772f20746f6b656e496420257320616e6420636861726163746572496e6465782025730a506c6179657220772f206368617261637465722025732061626f757420746f2061747461636b2e2048617320257320485020616e64202573204144426f73732061747461636b656420706c61796572277320706f6b656d6f6e2e204e657720706f6b656d6f6e2068703a2025730aa26469706673582212209b05cbe70dc94fb20c23140609eda8cf3d03f1051677990235049eaff7db7e4764736f6c63430008000033616e64202c206d6f7665206e616d652025732c2061747461636b2064616d616765202573446f6e6520696e697469616c697a696e6720257320772f2048502025732c20696d67202573446f6e6520696e697469616c697a696e6720626f737320257320772f2048502025732c20696d67202573",
  "linkReferences": {},
  "deployedLinkReferences": {}
}